S00F0000636C6F636B30312E73726563A8
S11300000C94B2000C94DA000C94DA000C94DA002C
S11300100C94DA000C94DA000C94DA000C94DA00F4
S11300200C94DA000C94DA000C94DA000C94DA00E4
S11300300C94DA000C94DA000C94DA000C94DA00D4
S11300400C9440020C94DA000C94DA000C94DA005C
S11300500C94DA000C9423020C94DA000C94DA0069
S11300600C94DA000C94DA0088098B098E09910942
S1130070940997099A09920B9A0B9E0BA40BA90B4E
S1130080AE0BB50BBD0BC40BCC0BDA0BDA0BDA0BD6
S1130090DA0BDA0BDA0BDA0BDA0BDA0BDA0BDA0B34
S11300A0DA0BDA0BDA0BDA0BDA0BDA0BDA0BDA0B24
S11300B0DA0BDA0BDA0BDA0BDA0BDA0BDA0BDA0B14
S11300C0DA0BDA0BDA0BDA0BDA0BDA0BDA0BDA0B04
S11300D0D80BDA0BDA0BDA0BDA0BDA0BDA0BDA0BF6
S11300E0DA0BDA0BDA0BDA0BDA0BDA0BDA0BDA0BE4
S11300F0DA0BDA0BDA0BDA0BDA0BDA0BDA0BDA0BD4
S1130100DA0BDA0BDA0BDA0BDA0BDA0BDA0BDA0BC3
S1130110DA0BDA0BDA0BDA0BDA0BDA0BDA0BDA0BB3
S1130120DA0BDA0BDA0BDA0BDA0BDA0BDA0BDA0BA3
S1130130DA0BDA0BDA0BDA0BDA0BDA0BDA0BDA0B93
S1130140DA0BDA0BDA0BDA0BDA0BDA0BDA0BDA0B83
S1130150DA0BDA0BDA0BDA0BDA0BDA0BDA0BDA0B73
S1130160D30BA00911241FBECFEFD8E0DEBFCDBF53
S113017011E0A0E0B1E0EEEAFCE102C005900D92CE
S1130180A630B107D9F721E0A6E0B1E001C01D9285
S1130190A132B207E1F710E0C2EBD0E004C021972E
S11301A0FE010E94160EC13BD107C9F70E944809FF
S11301B00C94550E0C940000CF93DF93DC01FB01EB
S11301C0808121E030E002C0220F331F4A95E2F71C
S11301D0822B80838C91922F909589238C93C7EEE8
S11301E0D3E02197F1F700C000008C91282B2C93C9
S11301F08081982390838FEC97E00197F1F700C0FA
S11302000000DF91CF910895DC01FB01F894908107
S113021021E030E002C0220F331F4A95E2F7922B0F
S113022090839C91209592239C938AE08A95F1F780
S113023000C08081282320838AEC8A95F1F700C0CE
S11302400895DC01FB01F894908121E030E002C0C4
S1130250220F331F4A95E2F7922B90839C912095AD
S113026092239C938AEA8A95F1F700C0808128231F
S113027020838AE28A95F1F700C00895CF92DF9235
S1130280EF92FF920F931F93CF93DF936C017B0147
S1130290042F122FC8E0D0E010FF06C0402FB70192
S11302A0C6010E94040105C0402FB701C6010E9487
S11302B021011695219781F7DF91CF911F910F911D
S11302C0FF90EF90DF90CF9008958F929F92AF921E
S11302D0BF92CF92DF92EF92FF920F931F93CF932F
S11302E0DF93DB01F894EE2009F450C061E070E084
S11302F0022E02C0660F771F0A94E2F7A62EB62ECE
S1130300B09468010E0D111DE7E0F0E07F01E21AE0
S1130310F1084601E6011882E0E0F0E02C912A2978
S11303202C93EC0128812B212883D5E0DA95F1F771
S113033000002C912B212C932AE22A95F1F700C07E
S1130340EA01288130E0262337230E2C02C0220F35
S1130350331F0A94E2F7E4013881232BE730F105D7
S113036014F0288305C030E035952795E4012883EF
S1130370D5E7DA95F1F700003196E830F10571F62A
S1130380EFEFCE1ADE0A0C151D0519F67894DF91ED
S1130390CF911F910F91FF90EF90DF90CF90BF907E
S11303A0AF909F908F900895FF920F931F93CF93D8
S11303B0DF93EC018B01F22E422F0E94DC002CEC27
S11303C04F2DB801CE010E943E0124E44F2DB80107
S11303D0CE010E943E01DF91CF911F910F91FF90BA
S11303E00895AF92BF92CF92DF92EF92FF920F9354
S11303F01F93CF93DF93EC016B015A01F22E422F2E
S11304000E94DC002CEC4F2DB601CE010E943E016F
S11304102EEB4F2DB601CE010E943E010F2EF9E0C6
S1130420EF2EF02D2F2DA501B601CE010E946501FE
S1130430DF91CF911F910F91FF90EF90DF90CF90BC
S1130440BF90AF9008951F920F920FB60F92112490
S11304508F939F93809178009091790090931F01DE
S113046080931E0181E0809320018AE18A95F1F74F
S113047000C09F918F910F900FBE0F901F90189501
S11304801F920F920FB60F9211242F933F934F9305
S11304905F936F937F938F939F93AF93BF93EF93E8
S11304A0FF9380910E018F3009F50E94660B209115
S11304B01D0190910D01E92FF0E0E75EFE4F808170
S11304C061E0291360E00E947F0B90910D0184E0AC
S11304D0891B0E94DF0B80910D018F5F843018F41B
S11304E080930D0111C010920D010EC040910501C1
S11304F090E02FE030E0241B310947FD339582174B
S1130500930711F40E94660B80910E018F3010F452
S11305108F5F01C080E080930E01FF91EF91BF9146
S1130520AF919F918F917F916F915F914F913F9187
S11305302F910F900FBE0F901F901895EEE6F0E0EC
S113054080818160808381E085BD0895E9E1F1E0E7
S113055082E0848313821282118210820895269A83
S1130560882311F02E9A08952E98089581E00E9410
S1130570AF022FE788E391E0215080409040E1F7FB
S113058000C0000080E00E94AF022FE788E391E002
S1130590215080409040E1F700C0000081E00E94BB
S11305A0AF022FE788E391E0215080409040E1F7CB
S11305B000C0000080E00E94AF02089581E00E9424
S11305C0AF022FEF84E39CE0215080409040E1F79C
S11305D000C0000080E00E94AF02089581E00E9404
S11305E0AF022FEF80E792E0215080409040E1F786
S11305F000C0000080E00E94AF020895CF93DF9313
S1130600AC019C01ADECBCEC0E941C0E9695879548
S113061096958795969587959C01220F331F880F91
S1130620991F880F991F880F991F820F931F9A0192
S1130630281B390BC9E1D1E028839A01A9E8B8E85D
S11306400E941C0EFC01F695E795F295E295EF7079
S1130650EF27FF70EF272CE32E9FC0012F9F900DF3
S113066011249A01281B390BADECBCEC0E941C0E22
S113067096958795969587959695879589839F01F5
S11306800E941C0E969587959695879596958795C5
S11306909C01220F331F880F991F880F991F880F01
S11306A0991F820F931FE81BF90BEA839A01369571
S11306B027953695279536952795AFE4BBE10E949B
S11306C01C0E9695879596958795969587958B8319
S11306D0DF91CF91089589B190E08095909595959B
S11306E087959595879595958795982F9370809183
S11306F00C0181115DC080910B01981347C09111C9
S113070045C02091090130910A012F5F3F4F30937A
S11307100A012093090125363105C0F181E0809357
S11307200C0110920A011092090130C0992371F151
S113073010920A01109209012091070130910801D9
S11307402C3D85E0380760F42F5F3F4F309308015C
S113075020930701EFECF7E03197F1F700C00000B8
S113076020910701309108012A30310521F490933A
S1130770060180E0089528353240C1F40E94DE026B
S113078010920C011092060183E0089580910601F5
S1130790882329F01092060110920C010895909379
S11307A00B011092080110920701089580E008954A
S11307B080910B019813EACFB9CF8091040190E0A6
S11307C00E94FE020E946B038823B9F3813051F426
S11307D0809104018F3F89F38F5F809304010E940D
S11307E0EE02EBCF823051F480910401882329F387
S11307F08150809304010E94EE02DFCF8330E9F63A
S11308006091040180910F01909110010E94470EA4
S113081080E008959F92AF92BF92CF92DF92EF92C1
S1130820FF920F931F93CF93DF93CDB7DEB76397F8
S11308300FB6F894DEBF0FBECDBF0E94A6020E9481
S1130840B602912CB12CC12CD12C00E010E0E12C8B
S1130850AA24A394CE0101960E94610AF980BB20C8
S113086009F464C0EF1409F467C00F5F1F4FC12C73
S1130870D12C62C02FEFC21AD20A35E8C31633E076
S1130880D30608F455C063C08A2D0E94AF0202C08B
S1130890992029F120910401822F90E00496801779
S11308A09107A8F0822F90E080179107A8F498018F
S11308B0281B390BC90131E0832781700E94AF02E4
S11308C08091040190E004968017910738F480E049
S11308D00E94AF029A2C03C09A2C01C09A2C0538AE
S11308E083E01807A0F50E946B038823B9F08130D8
S11308F029F40E94EE02912CBA2C10C0823049F4E3
S11309000E94B6020E94A602912CB12C00E010E0D5
S113091005C0833019F40E94DE0219C08FEC97E001
S11309200197F1F700C00000EF2C94CFEF10A2CF95
S1130930C8010E94FE02D3CFC8010E94FE0280912A
S1130940040190E00817190709F0A2CF9DCF80E0B9
S113095063960FB6F894DEBF0FBECDBFDF91CF9183
S11309601F910F91FF90EF90DF90CF90BF90AF90C9
S11309709F9008953F924F925F926F927F928F92D1
S11309809F92AF92BF92CF92DF92EF92FF920F931A
S11309901F93CF93DF93CDB7DEB729970FB6F894A3
S11309A0DEBF0FBECDBFE9E1F1E081E084838DE2DB
S11309B08383828381838083512CE12CF12C6F010A
S11309C00F2EFAE0AF2EB12CF02D44244A940F2EB2
S11309D0F4E68F2E912CF02D0F2EFDE23F2EF02DFC
S11309E066246394712C02C0E12CF12CE114F1040F
S11309F079F422E049E250E06AE270E08BE290E0B0
S1130A000E94D40178940E946B03811168C08CC049
S1130A1088EEE81683E0F80609F05DC08E010F5FEA
S1130A201F4F22E049E250E06AE270E08BE290E07E
S1130A300E94F1012A8130E0322F22278981282B5C
S1130A4033233CF4F6013382C301821B930B9C01D4
S1130A5002C0F6014382C9018F709927AC01440F8B
S1130A60551F880F991F880F991F880F991F840F8E
S1130A70951F9595879595958795959587959595C2
S1130A808795F60180833595279535952795359576
S1130A90279535952795243631053CF0C901B401D5
S1130AA00E94020E6383282F392FC90109964397A8
S1130AB028F0C901B5010E94020E01C0642DF6019F
S1130AC06283C901B5010E94020E81830E946B03F7
S1130AD0811105C022C00E946B03882321F081305C
S1130AE0C1F08230C1F08FEC97E00197F1F700C0BC
S1130AF0000099EEE91693E0F90620F4EFEFEE1A00
S1130B00FE0A74CF5394F7E0F51508F06DCF80E03A
S1130B1012C082E010C085E00EC08FEC97E0019710
S1130B20F1F700C00000EACFEFECF7E03197F1F7FE
S1130B3000C00000E3CF29960FB6F894DEBF0FBEC5
S1130B40CDBFDF91CF911F910F91FF90EF90DF9078
S1130B50CF90BF90AF909F908F907F906F905F9059
S1130B604F903F9008953F924F925F926F927F9281
S1130B708F929F92AF92BF92CF92DF92EF92FF92A9
S1130B800F931F93CF93DF93E9E1F1E081E0848336
S1130B9085E783838FEF8283818380837894ECE776
S1130BA0F0E080818F7080838081807F808380816A
S1130BB08083EAE7F0E08081806480838091200173
S1130BC08823E1F360911E0170911F0180E090E0A1
S1130BD00E94070D2AEA31EF44E951E40E945F0CB8
S1130BE06093150170931601809317019093180177
S1130BF0109220018FE19EE40197F1F700C00000FC
S1130C00ECE7F0E080818F7080838081807F808337
S1130C1080818083EAE7F0E0808180648083809132
S1130C2020018823E1F360911E0170911F0180E08F
S1130C3090E00E94070D2AEA31EF44E951E40E9452
S1130C405F0C6B017C016093150170931601809316
S1130C50170190931801109220010E94D80CCDEC3A
S1130C606C9F812D112486958695869509E111E066
S1130C70F8018283880F982F990F990F890F681BA9
S1130C80618320E030E040E251E4C701B6010E94F4
S1130C90950D0E94D80C6C9F812D11248695869504
S1130CA08695880F982F990F990F890F681BF80163
S1130CB06083C0E0D0E00F2EF8EEEF2EF3E0FF2EBD
S1130CC0F02D0CE710E00F2EFAE7AF2EB12CF02D2B
S1130CD00F2EF1E18F2EF1E09F2EF02D0F2EFDEC63
S1130CE03F2EF02D6F010E946B03813009F483C005
S1130CF08FEC97E00197F1F700C0000021969E0168
S1130D00369527953695279536952795A5ECB0E227
S1130D100E941C0E929582958F7089279F70892757
S1130D208E9D90018F9D300D9E9D300D1124C21714
S1130D30D30709F05BC0F80180818F7080838081C4
S1130D40807F808380818083F501808180648083BB
S1130D50809120018823E1F360911E0170911F01AD
S1130D6080E090E00E94070D2AEA31EF44E951E463
S1130D700E945F0CF40164837583868397831092C9
S1130D8020018FEC97E00197F1F700C00000448048
S1130D90558066807780C301B2010E94D80C639DA0
S1130DA0812D1124869586958695F6018283880F78
S1130DB0982F990F990F890F681B618320E030E009
S1130DC040E251E4C301B2010E94950D0E94D80C87
S1130DD0639D812D1124869586958695880F982F7D
S1130DE0990F990F890F681BF6016083C935FBE1E0
S1130DF0DF0709F078CF80E0DF91CF911F910F9149
S1130E00FF90EF90DF90CF90BF90AF909F908F9026
S1130E107F906F905F904F903F900895BF92CF92D4
S1130E20DF92EF92FF920F931F93CF93DF93E9E149
S1130E30F1E090818181880F182F110F110F810F1C
S1130E40182F190FC0E0D0E00F2EF9E8BF2EF02DB7
S1130E500F2EFCE3CF2EF02D7F010FEF0F2EFDECB4
S1130E60DF2EF02D0E946B03882381F0813061F422
S1130E70810F8B9D112D11241295169517701C9DB1
S1130E8080191124182F02C0823041F1CB3FD105C3
S1130E9098F01D9D812D1124869586958695F701E0
S1130EA08183880F982F990F990F890FF12FF81BC1
S1130EB08F2FF701808303C0F70101830083C43FB0
S1130EC0F1E0DF0710F4219602C0C0E0D0E08FEC1F
S1130ED097E00197F1F700C00000C4CF812F0E9472
S1130EE0D30A8DEC189F812D1124869586958695BD
S1130EF0E9E1F1E08183880F982F990F990F890F09
S1130F00181B108384E0DF91CF911F910F91FF9004
S1130F10EF90DF90CF90BF900895BF92CF92DF9271
S1130F20EF92FF920F931F93CF93DF93E9E1F1E0E8
S1130F3082819381990F192F110F110F190F180F17
S1130F40C0E0D0E00F2EFBEABF2EF02D0F2EF8E10B
S1130F50CF2EF02D7F010FEF0F2EFDECDF2EF02DA5
S1130F600E946B03882379F0813059F4810F8B9DA3
S1130F70112D112412951F701C9D80191124182FF6
S1130F8002C0823041F1CB3FD10598F01D9D812DE7
S1130F901124869586958695F7018383880F982F6B
S1130FA0990F990F890FF12FF81B8F2FF701828367
S1130FB003C0F70103830283C43FF1E0DF0710F4A9
S1130FC0219602C0C0E0D0E08FEC97E00197F1F7E2
S1130FD000C00000C5CF812F0E94200B86E0DF9166
S1130FE0CF911F910F91FF90EF90DF90CF90BF9022
S1130FF00895E9E1F1E08FEF808381838283838325
S1131000848308952F923F924F925F926F927F92C2
S11310108F929F92AF92BF92CF92DF92EF92FF9204
S11310200F931F93CF93DF93CDB7DEB767970FB6B8
S1131030F894DEBF0FBECDBF55245394BB24BA949D
S1131040A12C0F2EFCE32F2E312CF02D0F2EF9E1C5
S1131050CF2EF1E0DF2EF02D6894442441F80CE704
S113106010E00F2EFAE78F2E912CF02D0F2EF1E1C8
S11310706F2EF1E07F2EF02D89B18170F82ECE0114
S113108001960E94610AF11002C0552001F18A8183
S1131090982F9F70F601908390E09595879595958C
S11310A08795959587959595879581838B81982FBD
S11310B09F70928390E095958795959587959595E2
S11310C087959595879583834482F11034C0FFEF0B
S11310D0BF121FC02A81822F90E095958795959520
S11310E087959595879595958795AC01440F551FE0
S11310F0880F991F880F991F880F991F840F951FB8
S11311002F70820F911D0596B1010E94020EB82E18
S113111016C08A81982F9695969596959E71292F3B
S1131120220F220F920F8F70890FB81208C00E94ED
S1131130F9075A2C04C055245394BB24BA940E9432
S11311406B03882379F0813039F4511083C055241E
S11311505394BB24BA9406C0823009F47DC0833012
S113116009F47CC0F80180818F7080838081807F46
S11311708083808181608083F401808180648083A6
S1131180809120018823E1F360911E0170911F0179
S113119080E090E00E94070D2AEA31EF44E951E42F
S11311A00E945F0CF3016483758386839783A09206
S11311B02001E0901E01F0901F0120E030EC4FE789
S11311C054E46091000170910101809102019091B9
S11311D003010E94950D20E030E040E85AE30E94AC
S11311E0950D6C8B7D8B8E8B9F8BB70180E090E08F
S11311F00E94070D20E030E040E85AE30E94950D7C
S11312009B01AC016C897D898E899F890E94F30BB7
S11312106093000170930101809302019093030194
S113122020E030E040E85CE30E94950D9B01AC01B6
S113123060E070E080E791E40E94F20B0E94D10C20
S1131240609305018091050188230CF015CFA092CD
S1131250050112CF81E003C085E001C083E06796F9
S11312600FB6F894DEBF0FBECDBFDF91CF911F91B3
S11312700F91FF90EF90DF90CF90BF90AF909F9031
S11312808F907F906F905F904F903F902F90089534
S1131290C0910F01D0911001CE010E943F0E8F3FEB
S11312A031F460910401CE010E94470E02C0809384
S11312B004018AB1877E8AB98BB188618BB90E9497
S11312C0F9070E949E0278940E94200AECE7F0E05D
S11312D08081807F808380818083EAE7F0E0808161
S11312E08760808380818860808380818068808338
S11312F080818064808380E00E94AF0280E090E07F
S113130087309105D0F4FC01EC5CFF4F0C94160E71
S11313100E940208F4CF0E94BA04F1CF0E94B305E0
S1131320EECF0E940E07EBCF0E948D07E8CF0E94FC
S11313300A04E5CF0E94DD03E2CF0E940208DFCF5A
S113134080E094E090931F0180931E01109220018D
S1131350E1E1F1E080E090E0A0E8BFE780839183E1
S1131360A283B38384839583A683B783089510925D
S1131370B900BC0180E090E00E94070D9B01AC0124
S113138060E070E08AEF95E40E945F0C0E94D80C44
S1131390603188F070E060517109072E000C880BF1
S11313A0990B0E94090D20E030E040E05EE30E94CA
S11313B0950D0E94D80C6093B80088B1806388B9F9
S11313C0089584E98093BC0080E0ECEBF0E0908128
S11313D094FF0EC08A3531F482E08A95F1F700C09B
S11313E084E6089592E09A95F1F700C08F5FEFCFFD
S11313F08A3590F780E0089580E0ECEBF0E090818E
S1131400992374F08A3531F482E08A95F1F700C0AB
S113141084E6089592E09A95F1F700C08F5FEFCFCC
S11314208A3590F780E008952091B900287F30E054
S113143090E02817390711F08AE0089580E00895B4
S1131440EF92FF921F93CF93DF9380E991E00E9484
S1131450B709CCEBD0E084EA88830E94FC090F2E04
S1131460FBEBEF2EF12CF02D80EDF701808314E8D7
S113147018830E94FC0988E20E94140A8EE0F70196
S1131480808318830E94FC0988E20E94140A80E287
S1131490F701808318830E94FC0988E20E94140AE1
S11314A088E0F701808318830E94FC0988E20E9487
S11314B0140A0E94E109DF91CF911F91FF90EF90F0
S11314C008959F92AF92BF92CF92DF92EF92FF92D4
S11314D00F931F93CF93DF935C01CCEBD0E004EA2E
S11314E008830E94FC090F2EFBEBEF2EF12CF02D4C
S11314F080EDF701808314E818830E94FC0988E2D8
S11315000E94140AF701108218830E94FC0988E2E1
S11315100E94140A0E94E10908830E94FC0981EDDB
S1131520F701808318830E94FC0988E20E94140A50
S11315300E94FC09E5016501F3E1CF0ED11C0F2ED9
S1131540FCEBEF2EF12CF02D0F2EF4EC9F2EF02D52
S11315500BEB10E0F70190820E94FC09F8018081F6
S113156089930E94FC0980E50E94140ACC15DD05CC
S113157089F784E88093BC000E94FC098091BB0039
S1131580F50186830E94FC0988E50E94140ADF9114
S1131590CF911F910F91FF90EF90DF90CF90BF906C
S11315A0AF909F900895EF92FF920F931F93CF9364
S11315B0DF939DEC899F912D112496959695969590
S11315C0092F0295007F990F292F220F220F920FC6
S11315D0891B082BCCEBD0E084EA88830E94FC09A9
S11315E00F2EFBEBEF2EF12CF02D80EDF701808315
S11315F014E818830E94FC0988E20E94140AF70187
S1131600108218830E94FC0988E20E94140AF701E0
S1131610108218830E94FC0988E20E94140AF701D0
S1131620008318830E94FC0988E20E94140A0E9425
S1131630E109DF91CF911F910F91FF90EF900895F1
S1131640EF92FF920F931F93CF93DF939DEC899FAB
S1131650912D1124969596959695092F0295007FC4
S1131660990F292F220F220F920F891B082BCCEBE5
S1131670D0E084EA88830E94FC090F2EFBEBEF2E56
S1131680F12CF02D80EDF701808314E818830E947B
S1131690FC0988E20E94140A82E0F701808318831F
S11316A00E94FC0988E20E94140AF701008318834F
S11316B00E94FC0988E20E94140A0E94E109DF9159
S11316C0CF911F910F91FF90EF9008953A9A42980D
S11316D08AB182628AB98BB18D7D8BB984B18D63F5
S11316E084B985B1827C85B9219A3B9A8AB1806C90
S11316F08AB9299A439A8BB1806C8BB90895CF9398
S1131700DF93C82FD62F0E94660BD1112C9A8C2FF1
S113171090E08637910508F04DC0FC01E55CFF4F71
S11317200C94160E85B1896285B98BB182628BB92E
S1131730429A42C085B1896085B93EC085B185624F
S113174085B9599A429A38C085B18D6285B9599A3A
S113175033C085B18D6085B95D9A2EC085B18C6228
S113176085B98BB182628BB927C085B18C6285B98A
S11317708BB182628BB9429A1FC085B1896085B9E9
S11317808BB182628BB918C085B18D6285B98BB17A
S113179082628BB9429A10C085B18D6285B98BB1D2
S11317A082628BB909C085B1886285B9429A04C046
S11317B02A9A02C00E94660BDF91CF91089582306D
S11317C059F018F4813031F00895833039F08430C1
S11317D039F00895439808955E9808955F980895A0
S11317E0299808955058BB27AA270E940A0C0C94E4
S11317F05B0D0E944D0D38F00E94540D20F039F419
S11318009F3F19F426F40C944A0D0EF4E095E7FB7F
S11318100C94440DE92F0E946C0D58F3BA1762071B
S113182073078407950720F079F4A6F50C948E0DC0
S11318300EF4E0950B2EBA2FA02D0B01B9019001E7
S11318400C01CA01A0011124FF27591B99F0593F2B
S113185050F4503E68F11A16F040A22F232F342F73
S11318604427585FF3CF469537952795A795F040C1
S11318705395C9F77EF41F16BA0B620B730B840BD6
S1131880BAF09150A1F0FF0FBB1F661F771F881F8E
S1131890C2F70EC0BA0F621F731F841F48F48795E6
S11318A077956795B795F7959E3F08F0B0CF9395D8
S11318B0880F08F09927EE0F9795879508950E9451
S11318C0730C0C945B0D0E94540D58F00E944D0D46
S11318D040F029F45F3F29F00C94440D51110C940D
S11318E08F0D0C944A0D0E946C0D68F39923B1F38B
S11318F0552391F3951B550BBB27AA276217730732
S1131900840738F09F5F5F4F220F331F441FAA1FC5
S1131910A9F335D00E2E3AF0E0E832D09150504081
S1131920E695001CCAF72BD0FE2F29D0660F771F2F
S1131930881FBB1F261737074807AB07B0E809F015
S1131940BB0B802DBF01FF2793585F4F3AF09E3F9A
S1131950510578F00C94440D0C948F0D5F3FE4F323
S1131960983ED4F3869577956795B795F7959F5FDD
S1131970C9F7880F911D9695879597F90895E1E029
S1131980660F771F881FBB1F621773078407BA0788
S113199020F0621B730B840BBA0BEE1F88F7E095E3
S11319A008950E94D80C6894B1110C948F0D089579
S11319B00E94740D88F09F5798F0B92F9927B7515A
S11319C0B0F0E1F0660F771F881F991F1AF0BA95DF
S11319D0C9F714C0B13091F00E948E0DB1E00895A2
S11319E00C948E0D672F782F8827B85F39F0B93F94
S11319F0CCF3869577956795B395D9F73EF4909592
S1131A008095709561957F4F8F4F9F4F0895E8940F
S1131A1009C097FB3EF490958095709561957F4F32
S1131A208F4F9F4F9923A9F0F92F96E9BB279395E0
S1131A30F695879577956795B795F111F8CFFAF4F0
S1131A40BB0F11F460FF1BC06F5F7F4F8F4F9F4F21
S1131A5016C0882311F096E911C0772321F09EE87F
S1131A60872F762F05C0662371F096E8862F70E0E5
S1131A7060E02AF09A95660F771F881FDAF7880FBF
S1131A809695879597F9089597F99F6780E870E090
S1131A9060E008959FEF80EC089500240A941616E0
S1131AA0170618060906089500240A941216130648
S1131AB0140605060895092E0394000C11F48823D6
S1131AC052F0BB0F40F4BF2B11F460FF04C06F5FF2
S1131AD07F4F8F4F9F4F089557FD9058440F551FC8
S1131AE059F05F3F71F04795880F97FB991F61F09C
S1131AF09F3F79F087950895121613061406551F13
S1131B00F2CF4695F1DF08C0161617061806991F7E
S1131B10F1CF86957105610508940895E894BB2773
S1131B2066277727CB0197F908950E94A80D0C9496
S1131B305B0D0E944D0D38F00E94540D20F095234A
S1131B4011F00C94440D0C944A0D11240C948F0D37
S1131B500E946C0D70F3959FC1F3950F50E0551FD3
S1131B60629FF001729FBB27F00DB11D639FAA27EE
S1131B70F00DB11DAA1F649F6627B00DA11D661F3D
S1131B80829F2227B00DA11D621F739FB00DA11D5E
S1131B90621F839FA00D611D221F749F3327A00D18
S1131BA0611D231F849F600D211D822F762F6A2FB4
S1131BB011249F5750409AF0F1F088234AF0EE0F19
S1131BC0FF1FBB1F661F771F881F91505040A9F746
S1131BD09E3F510580F00C94440D0C948F0D5F3F93
S1131BE0E4F3983ED4F3869577956795B795F79582
S1131BF0E7959F5FC1F7FE2B880F911D96958795FA
S1131C0097F9089597FB072E16F4009407D077FDF3
S1131C1009D00E942B0E07FC05D03EF490958195C7
S1131C209F4F0895709561957F4F0895EE0FFF1FA4
S1131C300590F491E02D0994A29FB001B39FC001D7
S1131C40A39F700D811D1124911DB29F700D811DE4
S1131C501124911D0895AA1BBB1B51E107C0AA1FA3
S1131C60BB1FA617B70710F0A61BB70B881F991F39
S1131C705A95A9F780959095BC01CD010895F999DD
S1131C80FECF92BD81BDF89A992780B50895262F7D
S1131C90F999FECF1FBA92BD81BD20BD0FB6F8944D
S1111CA0FA9AF99A0FBE01960895F894FFCFB0
S1091CAE00C07F441B0F7F
S9030000FC
