S00F0000636C6F636B30312E73726563A8
S11300000C94AB000C94D3000C94D3000C94D30048
S11300100C94D3000C94D3000C94D3000C94D30010
S11300200C94D3000C94D3000C94D3000C94D30000
S11300300C94D3000C94D3000C94D3000C94D300F0
S11300400C943D020C94D3000C94D3000C94D30074
S11300500C94D3000C9420020C94D3000C94D30081
S11300600C94D3000C94D300C008C808CC08D20860
S1130070D708DC08E308EB08F208FA0808090809BD
S113008008090809080908090809080908090809E4
S113009008090809080908090809080908090809D4
S11300A008090809080908090809080908090809C4
S11300B008090809080908090809080908090809B4
S11300C008090609080908090809080908090809A6
S11300D00809080908090809080908090809080994
S11300E00809080908090809080908090809080984
S11300F00809080908090809080908090809080974
S11301000809080908090809080908090809080963
S11301100809080908090809080908090809080953
S11301200809080908090809080908090809080943
S11301300809080908090809080908090809080933
S11301400809080908090809080908090809080923
S113015008090109C50611241FBECFEFD8E0DEBF90
S1130160CDBF11E0A0E0B1E0E8EDF5E102C00590FB
S11301700D92A230B107D9F721E0A2E0B1E001C0AD
S11301801D92A731B207E1F710E0CBEAD0E004C03A
S11301902197FE010E94D00ACA3AD107C9F70E94EA
S11301A083060C94EA0A0C940000DC01FB018081B4
S11301B021E030E002C0220F331F4A95E2F7822B80
S11301C080839C91322F309593239C9387EE93E008
S11301D00197F1F700C000008C91282B2C938081AB
S11301E0832380838FEC97E00197F1F700C0000030
S11301F00895DC01FB01F894908121E030E002C015
S1130200220F331F4A95E2F7922B90839C912095FD
S113021092239C938AE08A95F1F700C08081282379
S113022020838AEC8A95F1F700C00895DC01FB0174
S1130230F894908121E030E002C0220F331F4A95E8
S1130240E2F7922B90839C91209592239C938AEAC7
S11302508A95F1F700C08081282320838AE28A9559
S1130260F1F700C00895CF92DF92EF92FF920F93BF
S11302701F93CF93DF936C017B01042F122FC8E0EF
S1130280D0E010FF06C0402FB701C6010E94F9005C
S113029005C0402FB701C6010E941601169521978B
S11302A081F7DF91CF911F910F91FF90EF90DF9035
S11302B0CF9008954F925F927F928F929F92AF92C8
S11302C0BF92CF92DF92EF92FF920F931F93CF933F
S11302D0DF93DB01F894EE2009F452C061E070E092
S11302E0022E02C0660F771F0A94E2F7B62EF62E8E
S11302F0F094680148018E0C911CE12CA12C07E0BC
S113030010E0021B11092601E6011882EE2DFA2DD8
S11303102C912B292C93EC0128812F212883D5E0C3
S1130320DA95F1F700002C912F212C932AE22A95DB
S1130330F1F700C0EA012881E201788030E0262349
S11303403723002E02C0220F331F0A94E2F7272915
S1130350E730F10514F0288305C033273595279538
S1130360E2012883D5E7DA95F1F700003196E83009
S1130370F10571F6EFEFCE1ADE0AC814D90419F6A6
S11303807894DF91CF911F910F91FF90EF90DF90C0
S1130390CF90BF90AF909F908F907F905F904F9041
S11303A00895FF920F931F93CF93DF93EC018B017A
S11303B0F22E422F0E94D5002CEC4F2DB801CE0115
S11303C00E94330124E44F2DB801CE010E94330171
S11303D0DF91CF911F910F91FF900895AF92BF923B
S11303E0CF92DF92EF92FF920F931F93CF93DF93FD
S11303F0EC016B015A01F22E422F0E94D5002CEC25
S11304004F2DB601CE010E9433012EEB4F2DB601C4
S1130410CE010E9433010F2EF9E0EF2EF02D2F2D87
S1130420A501B601CE010E945A01DF91CF911F911F
S11304300F91FF90EF90DF90CF90BF90AF90089511
S11304401F920F920FB60F9211248F939F93809156
S1130450780090917900909315018093140181E0C4
S1130460809316018AE18A95F1F700C09F918F91DC
S11304700F900FBE0F901F9018951F920F920FB6FA
S11304800F9211242F933F934F935F936F937F9316
S11304908F939F93AF93BF93EF93FF930E9494081E
S11304A0809100012091060130E0082E000C990B88
S11304B028173907F1F42091130190910501E92FD0
S11304C0F0E0E15FFE4F808161E0291360E00E946B
S11304D0AD089091050184E0891B0E940D0980916B
S11304E005018F5F843018F48093050102C01092D7
S11304F005018091060120910001482F50E0022E51
S1130500000C330B4217530714F48F5F01C080E0D3
S113051080930601FF91EF91BF91AF919F918F91CD
S11305207F916F915F914F913F912F910F900FBEEB
S11305300F901F901895EEE6F0E080818160808333
S113054082E085BD089589B190E080959095959558
S113055087959595879595958795837090910401D6
S1130560891322C0882301F12091020130910301F3
S11305702C3D95E0390760F42F5F3F4F3093030122
S113058020930201EFECF7E03197F1F700C000008F
S113059020910201309103012A30310571F0283E87
S11305A0334051F080E008958093040110920301D8
S11305B01092020180E0089583E008952F923F9203
S11305C04F925F926F927F928F929F92AF92BF925F
S11305D0CF92DF92EF92FF920F931F93CF93DF930B
S11305E0CDB7DEB729970FB6F894DEBF0FBECDBFE7
S11305F0EFE0F1E081E084838DE283838283818371
S11306008083512CE12CF12C312C412C6F010F2EC5
S1130610FAE0AF2EB12CF02D22242A940F2EF4E60A
S11306208F2E912CF02D66246394712C02C0E32C40
S1130630F42CE114F10481F422E049E250E06AE28E
S113064070E08BE290E00E94D10178940E94A302B2
S1130650813009F08CC07EC088EEE81683E0F8068D
S113066009F05EC08E010F5F1F4F22E049E250E0A7
S11306706AE270E08BE290E00E94EE012A8130E0B1
S1130680322F22278981282B332344F48DE2F6016B
S11306908383F301E21BF30B9F0102C0F601238263
S11306A0C9018F709927AC01440F551F880F991FFA
S11306B0880F991F880F991F840F951F959587950B
S11306C0959587959595879595958795F60180835A
S11306D035952795359527953595279535952795FE
S11306E0243631053CF0C901B4010E94BC0A63837D
S11306F0282F392FC9010996439728F0C901B5015C
S11307000E94BC0A01C0622DF6016283C901B501D1
S11307100E94BC0A81830E94A302813009F51CC097
S11307200E94A3028130D1F08FEC97E00197F1F79A
S113073000C0000099EEE91693E0F90620F4EFEF0B
S1130740EE1AFE0A76CF5394F7E0F51508F06FCF52
S113075080E014C082E012C082E010C082E00EC0CB
S11307608FEC97E00197F1F700C00000E8CFEFECC1
S1130770F7E03197F1F700C00000E1CF29960FB6FA
S1130780F894DEBF0FBECDBFDF91CF911F910F91C3
S1130790FF90EF90DF90CF90BF90AF909F908F909D
S11307A07F906F905F904F903F902F9008954F925D
S11307B05F926F927F929F92AF92BF92CF92DF929D
S11307C0EF92FF920F931F93CF93DF93EFE0F1E04B
S11307D081E0848385E783838FEF828381838083B1
S11307E078940F2EF9E5AF2EFBE1BF2EF02DCCE768
S11307F0D0E00F2EFAE7EF2EF12CF02D0F2EF7E0BC
S1130800CF2EF1E0DF2EF02D0F2EFDEC9F2EF02DDC
S11308108F0188818F7088838881807F8883888115
S11308208883F70180818064808380911601882306
S1130830E1F3609114017091150180E090E00E9451
S1130840C1092AEA31EF44E951E40E9420092B014D
S11308503C01F601648375838683978310921601A5
S11308600E949209699D812D11248695869586950D
S1130870F8018283880F982F990F990F890F681BAD
S1130880618320E030E040E251E4C301B2010E9400
S11308904F0A0E949209699D812D1124869586959F
S11308A08695880F982F990F990F890F681BF80167
S11308B060830E94A302813059F08FEC97E0019786
S11308C0F1F700C0000091E0A91AB10809F0A1CF26
S11308D080E0DF91CF911F910F91FF90EF90DF9017
S11308E0CF90BF90AF909F907F906F905F904F900C
S11308F008959F92AF92BF92CF92DF92EF92FF92B0
S11309000F931F93CF93DF93EFE0F1E09081818108
S1130910880F182F110F110F810F182F190FC0E016
S1130920D0E00F2EF9E89F2EF02D0F2EFCE3AF2E12
S1130930F02D7F010FEF0F2EFDECBF2EF02DC12CFB
S1130940D12C0E94A302882381F0813061F4810FAD
S1130950899D112D11241295169517701A9D8019D1
S11309601124182F02C0823031F1CB3FD10588F019
S11309701B9D912D1124969596959695F70191833B
S1130980990F892F880F880F980F812F891B8083D7
S113099003C0F70101830083C43FF1E0DF0710F4D3
S11309A0219602C0CC2DDD2DEFECF7E03197F1F765
S11309B000C00000C6CF812F0E94F8078DEC189F5D
S11309C0812D1124869586958695EFE0F1E081834B
S11309D0880F982F990F990F890F181B108384E0A3
S11309E0DF91CF911F910F91FF90EF90DF90CF9007
S11309F0BF90AF909F9008959F92AF92BF92CF9275
S1130A00DF92EF92FF920F931F93CF93DF93EFE068
S1130A10F1E092818381880F182F110F110F810F3C
S1130A20182F190FC0E0D0E00F2EFBEA9F2EF02DF7
S1130A300F2EF8E1AF2EF02D7F010FEF0F2EFDECFE
S1130A40BF2EF02DC12CD12C0E94A302882379F053
S1130A50813059F4810F899D112D112412951F7035
S1130A601A9D80191124182F02C0823031F1CB3F16
S1130A70D10588F01B9D912D1124969596959695F8
S1130A80F7019383990F892F880F880F980F812F6F
S1130A90891B828303C0F70103830283C43FF1E00F
S1130AA0DF0710F4219602C0CC2DDD2DEFECF7E02A
S1130AB03197F1F700C00000C7CF812F0E944A0888
S1130AC080E0DF91CF911F910F91FF90EF90DF9025
S1130AD0CF90BF90AF909F900895EFE0F1E08FEF3B
S1130AE08083818382838383848308952F923F92BA
S1130AF04F925F926F927F928F929F92AF92BF922A
S1130B00CF92DF92EF92FF920F931F93CF93DF93D5
S1130B10CDB7DEB763970FB6F894DEBF0FBECDBF77
S1130B2044244394EE24EA94512C0F2EFCE36F2EBC
S1130B30712CF02D0F2EFFE0CF2EF1E0DF2EF02DE3
S1130B406894222421F80CE710E00F2EFAE7AF2E68
S1130B50B12CF02D0F2EF7E08F2EF1E09F2EF02D0B
S1130B600F2EFFE03F2EF02D89B18170F82ECE01BB
S1130B7001960E948607F11002C0442001F18A8187
S1130B80982F9F70F601908390E0959587959595A1
S1130B908795959587959595879581838B81982FD2
S1130BA09F70928390E095958795959587959595F7
S1130BB087959595879583832482F11034C0FFEF40
S1130BC0EF121FC08A81282F2F7090E0959587958A
S1130BD0959587959595879595958795AC01440F3F
S1130BE0551F880F991F880F991F880F991F840F0D
S1130BF0951F820F911D0596B3010E94BC0AE82E31
S1130C0016C08A81982F9695969596959E71292F50
S1130C10220F220F920F8F70890FE81208C00E94D2
S1130C206D05452C04C044244394EE24EA940E94A8
S1130C30A302882361F0813039F4411048C0442470
S1130C404394EE24EA9403C0833009F442C0F801CB
S1130C5080818F7080838081807F808380818160A8
S1130C608083F501808180648083809116018823CC
S1130C70E1F3609114017091150180E090E00E940D
S1130C80C1092AEA31EF44E951E40E942009F40140
S1130C90648375838683978350921601809114012F
S1130CA0909115010024880F991F001C880F991F2B
S1130CB0001C892F902DF32DF81BF09300018091D7
S1130CC0000188230CF050CF509200014DCF81E0F9
S1130CD001C083E063960FB6F894DEBF0FBECDBFAC
S1130CE0DF91CF911F910F91FF90EF90DF90CF9004
S1130CF0BF90AF909F908F907F906F905F904F9038
S1130D003F902F9008958AB1877E8AB98BB188610C
S1130D108BB90E946D050E949B0278940E9445073E
S1130D20ECE7F0E08081807F808380818083EAE744
S1130D30F0E0808187608083808188608083808107
S1130D408068808380818064808380E0823089F041
S1130D5028F4882341F0813049F014C0833061F0D5
S1130D60843069F00FC00E947605F0CF0E94DE0245
S1130D70EDCF0E94D703EACF0E947904E7CF0E9407
S1130D80FC04E4CF0E947605E1CF80E094E09093E8
S1130D9015018093140110921601E7E0F1E080E060
S1130DA090E0A0E8BFE780839183A283B383848328
S1130DB09583A683B78308951092B900BC0180E09F
S1130DC090E00E94C1099B01AC0160E070E08AEFF1
S1130DD095E40E9420090E949209603188F070E035
S1130DE060517109072E000C880B990B0E94C309EE
S1130DF020E030E040E05EE30E944F0A0E94920946
S1130E006093B80088B1806388B9089584E98093B9
S1130E10BC0090E0ECEBF0E0808184FF08C09A35E0
S1130E2051F482E08A95F1F700C084E608959A357A
S1130E30C0F780E0089582E08A95F1F700C09F5FD3
S1130E40EBCF90E0ECEBF0E08081882344F09A351E
S1130E5051F482E08A95F1F700C084E608959A354A
S1130E60C0F780E0089582E08A95F1F700C09F5FA3
S1130E70EBCF2091B900287F30E090E028173907A4
S1130E8011F08AE0089580E00895EF92FF921F9395
S1130E90CF93DF9380E991E00E94DC06CCEBD0E0B5
S1130EA084EA88830E9421070F2EFBEBEF2EF12C9E
S1130EB0F02D80EDF701808314E818830E94210748
S1130EC088E20E9439078EE0F701808318830E942C
S1130ED0210788E20E94390780E2F70180831883A2
S1130EE00E94210788E20E94390788E0F701808385
S1130EF018830E94210788E20E9439070E9406078E
S1130F00DF91CF911F91FF90EF9008959F92AF9240
S1130F10BF92CF92DF92EF92FF920F931F93CF93E2
S1130F20DF935C01CCEBD0E004EA08830E94210744
S1130F300F2EFBEBEF2EF12CF02D80EDF7018083CB
S1130F4014E818830E94210788E20E943907F701F8
S1130F50108218830E94210788E20E9439070E94A8
S1130F60060708830E94210781EDF7018083188317
S1130F700E94210788E20E9439070E942107E501A7
S1130F806501F3E1CF0ED11C0F2EFCEBEF2EF12CFB
S1130F90F02D0F2EF4EC9F2EF02D0BEB10E0F7014B
S1130FA090820E942107F801908199930E94210761
S1130FB080E50E943907CC15DD0589F784E8809324
S1130FC0BC000E9421078091BB00F50186830E942A
S1130FD0210788E50E943907DF91CF911F910F9176
S1130FE0FF90EF90DF90CF90BF90AF909F900895C7
S1130FF0EF92FF920F931F93CF93DF939DEC899F02
S1131000912D1124969596959695C92FC295C07FDA
S1131010990F292F220F220F920F891BC82B0CEB3B
S113102010E084EAF80180830E9421070F2EFBEB75
S1131030EF2EF12CF02D80EDF7018083D4E8F80138
S1131040D0830E94210788E20E943907F7011082A9
S1131050F801D0830E94210788E20E943907F70132
S11310601082F801D0830E94210788E20E94390788
S1131070F701C083F801D0830E94210788E20E940F
S113108039070E940607DF91CF911F910F91FF90BE
S1131090EF900895EF92FF920F931F93CF93DF93F6
S11310A09DEC899F912D1124969596959695C92F1F
S11310B0C295C07F990F292F220F220F920F891BEF
S11310C0C82B0CEB10E084EAF80180830E9421070E
S11310D00F2EFBEBEF2EF12CF02D80EDF70180832A
S11310E0D4E8F801D0830E94210788E20E943907DE
S11310F082E0F7018083F801D0830E94210788E20F
S11311000E943907F701C083F801D0830E942107A8
S113111088E20E9439070E940607DF91CF911F9150
S11311200F91FF90EF9008953A9A42988AB18262A3
S11311308AB98BB18D7D8BB984B18D6384B985B146
S1131140827C85B9219A3B9A8AB1806C8AB9299AA2
S1131150439A8BB1806C8BB90895CF93DF93C82FDA
S1131160D62F0E949408D1112C9A8C2F90E08637A8
S1131170910508F04DC0FC01EC5CFF4F0C94D00AC3
S113118085B1896285B98BB182628BB9429A42C0BA
S113119085B1896085B93EC085B1856285B9599AA2
S11311A0429A38C085B18D6285B9599A33C085B1E8
S11311B08D6085B95D9A2EC085B18C6285B98BB17D
S11311C082628BB927C085B18C6285B98BB182628A
S11311D08BB9429A1FC085B1896085B98BB182628F
S11311E08BB918C085B18D6285B98BB182628BB918
S11311F0429A10C085B18D6285B98BB182628BB978
S113120009C085B1886285B9429A04C02A9A02C08D
S11312100E949408DF91CF910895823059F018F418
S1131220813031F00895833039F0843039F00895F5
S1131230439808955E9808955F98089529980895AD
S11312400E9434090C94150A0E940E0A58F00E9458
S1131250070A40F029F45F3F29F00C94FE0951116C
S11312600C94490A0C94040A0E94260A68F39923F0
S1131270B1F3552391F3951B550BBB27AA2762178E
S11312807307840738F09F5F5F4F220F331F441F9B
S1131290AA1FA9F335D00E2E3AF0E0E832D09150CF
S11312A05040E695001CCAF72BD0FE2F29D0660FBC
S11312B0771F881FBB1F261737074807AB07B0E8FF
S11312C009F0BB0B802DBF01FF2793585F4F3AF005
S11312D09E3F510578F00C94FE090C94490A5F3F37
S11312E0E4F3983ED4F3869577956795B795F7958B
S11312F09F5FC9F7880F911D9695879597F9089573
S1131300E1E0660F771F881FBB1F6217730784070E
S1131310BA0720F0621B730B840BBA0BEE1F88F71D
S1131320E09508950E942E0A88F09F5798F0B92FEF
S11313309927B751B0F0E1F0660F771F881F991F06
S11313401AF0BA95C9F714C0B13091F00E94480A56
S1131350B1E008950C94480A672F782F8827B85F66
S113136039F0B93FCCF3869577956795B395D9F75E
S11313703EF490958095709561957F4F8F4F9F4F68
S11313800895E89409C097FB3EF490958095709574
S113139061957F4F8F4F9F4F9923A9F0F92F96E9BD
S11313A0BB279395F695879577956795B795F11132
S11313B0F8CFFAF4BB0F11F460FF1BC06F5F7F4FCF
S11313C08F4F9F4F16C0882311F096E911C07723E1
S11313D021F09EE8872F762F05C0662371F096E8EA
S11313E0862F70E060E02AF09A95660F771F881FB9
S11313F0DAF7880F9695879597F9089597F99F6777
S113140080E870E060E008959FEF80EC0895002488
S11314100A941616170618060906089500240A9455
S113142012161306140605060895092E0394000CDB
S113143011F4882352F0BB0F40F4BF2B11F460FF6A
S113144004C06F5F7F4F8F4F9F4F089557FD905893
S1131450440F551F59F05F3F71F04795880F97FB74
S1131460991F61F09F3F79F087950895121613062E
S11314701406551FF2CF4695F1DF08C0161617065D
S11314801806991FF1CF8695710561050894089592
S1131490E894BB2766277727CB0197F908950E9424
S11314A0620A0C94150A0E94070A38F00E940E0A78
S11314B020F0952311F00C94FE090C94040A1124D5
S11314C00C94490A0E94260A70F3959FC1F3950F64
S11314D050E0551F629FF001729FBB27F00DB11DB4
S11314E0639FAA27F00DB11DAA1F649F6627B00D44
S11314F0A11D661F829F2227B00DA11D621F739F2D
S1131500B00DA11D621F839FA00D611D221F749F3A
S11315103327A00D611D231F849F600D211D822F81
S1131520762F6A2F11249F5750409AF0F1F08823A8
S11315304AF0EE0FFF1FBB1F661F771F881F9150D5
S11315405040A9F79E3F510580F00C94FE090C947D
S1131550490A5F3FE4F3983ED4F3869577956795FF
S1131560B795F795E7959F5FC1F7FE2B880F911DFF
S11315709695879597F9089597FB072E16F400948E
S113158007D077FD09D00E94D60A07FC05D03EF4A7
S1131590909581959F4F0895709561957F4F08951B
S11315A0EE0FFF1F0590F491E02D0994AA1BBB1BBD
S11315B051E107C0AA1FBB1FA617B70710F0A61B4F
S11315C0B70B881F991F5A95A9F780959095BC0170
S10B15D0CD010895F894FFCF4A
S10515D81000FD
S9030000FC
