:100000000C94AB000C94D3000C94D3000C94D3004C
:100010000C94D3000C94D3000C94D3000C94D30014
:100020000C94D3000C94D3000C94D3000C94D30004
:100030000C94D3000C94D3000C94D3000C94D300F4
:100040000C9439020C94D3000C94D3000C94D3007C
:100050000C94D3000C941C020C94D3000C94D30089
:100060000C94D3000C94D300F40AFC0A000B060B8A
:100070000B0B100B170B1F0B260B2E0B3C0B3C0B0B
:100080003C0B3C0B3C0B3C0B3C0B3C0B3C0B3C0B38
:100090003C0B3C0B3C0B3C0B3C0B3C0B3C0B3C0B28
:1000A0003C0B3C0B3C0B3C0B3C0B3C0B3C0B3C0B18
:1000B0003C0B3C0B3C0B3C0B3C0B3C0B3C0B3C0B08
:1000C0003C0B3A0B3C0B3C0B3C0B3C0B3C0B3C0BFA
:1000D0003C0B3C0B3C0B3C0B3C0B3C0B3C0B3C0BE8
:1000E0003C0B3C0B3C0B3C0B3C0B3C0B3C0B3C0BD8
:1000F0003C0B3C0B3C0B3C0B3C0B3C0B3C0B3C0BC8
:100100003C0B3C0B3C0B3C0B3C0B3C0B3C0B3C0BB7
:100110003C0B3C0B3C0B3C0B3C0B3C0B3C0B3C0BA7
:100120003C0B3C0B3C0B3C0B3C0B3C0B3C0B3C0B97
:100130003C0B3C0B3C0B3C0B3C0B3C0B3C0B3C0B87
:100140003C0B3C0B3C0B3C0B3C0B3C0B3C0B3C0B77
:100150003C0B350B020911241FBECFEFD8E0DEBFE8
:10016000CDBF11E0A0E0B1E0E6E4FBE102C0059004
:100170000D92A630B107D9F721E0A6E0B1E001C0A9
:100180001D92AB31B207E1F710E0CBEAD0E004C03A
:100190002197FE010E94780DCA3AD107C9F70E9443
:1001A000BC080C94A10D0C940000CF93DF93DC01EC
:1001B000FB01808121E030E002C0220F331F4A950D
:1001C000E2F7822B80838C91922F909589238C93D8
:1001D000C7EED3E02197F1F700C000008C91282BE7
:1001E0002C938081982390838FEC97E00197F1F70F
:1001F00000C00000DF91CF910895DC01FB01F8946D
:10020000908121E030E002C0220F331F4A95E2F7CF
:10021000922B90839C91209592239C938AE08A95BF
:10022000F1F700C08081282320838AEC8A95F1F7BA
:1002300000C00895DC01FB01F894908121E030E0DA
:1002400002C0220F331F4A95E2F7922B90839C91B4
:10025000209592239C938AEA8A95F1F700C08081C9
:10026000282320838AE28A95F1F700C00895CF926F
:10027000DF92EF92FF920F931F93CF93DF936C0166
:100280007B01042F122FC8E0D0E010FF06C0402FE2
:10029000B701C6010E94FD0005C0402FB701C6018D
:1002A0000E941A011695219781F7DF91CF911F9136
:1002B0000F91FF90EF90DF90CF9008958F929F92D3
:1002C000AF92BF92CF92DF92EF92FF920F931F9364
:1002D000CF93DF93DB01F894EE2009F450C061E086
:1002E00070E0022E02C0660F771F0A94E2F7A62E76
:1002F000B62EB09468010E0D111DE7E0F0E07F010D
:10030000E21AF1084601E6011882E0E0F0E02C91E3
:100310002A292C93EC0128812B212883D5E0DA951A
:10032000F1F700002C912B212C932AE22A95F1F76A
:1003300000C0EA01288130E0262337230E2C02C0BA
:10034000220F331F0A94E2F7E4013881232BE730B0
:10035000F10514F0288305C030E035952795E401B8
:100360002883D5E7DA95F1F700003196E830F105FA
:1003700071F6EFEFCE1ADE0A0C151D0519F678940A
:10038000DF91CF911F910F91FF90EF90DF90CF9071
:10039000BF90AF909F908F900895FF920F931F93FF
:1003A000CF93DF93EC018B01F22E422F0E94D500F8
:1003B0002CEC4F2DB801CE010E94370124E44F2DC3
:1003C000B801CE010E943701DF91CF911F910F91AB
:1003D000FF900895AF92BF92CF92DF92EF92FF927B
:1003E0000F931F93CF93DF93EC016B015A01F22E11
:1003F000422F0E94D5002CEC4F2DB601CE010E9459
:1004000037012EEB4F2DB601CE010E9437010F2E82
:10041000F9E0EF2EF02D2F2DA501B601CE010E949F
:100420005E01DF91CF911F910F91FF90EF90DF90D0
:10043000CF90BF90AF9008951F920F920FB60F927A
:1004400011248F939F9380917800909179009093DD
:1004500019018093180181E080931A018AE18A953D
:10046000F1F700C09F918F910F900FBE0F901F90DA
:1004700018951F920F920FB60F9211242F933F934E
:100480004F935F936F937F938F939F93AF93BF939C
:10049000EF93FF9380910A018F3009F50E94C80AFB
:1004A0002091170190910901E92FF0E0ED5EFE4FD8
:1004B000808161E0291360E00E94E10A90910901C6
:1004C00084E0891B0E94410B809109018F5F843079
:1004D00018F48093090111C0109209010EC04091D7
:1004E000040190E02FE030E0241B310947FD3395F3
:1004F0008217930711F40E94C80A80910A018F3075
:1005000010F48F5F01C080E080930A01FF91EF91AA
:10051000BF91AF919F918F917F916F915F914F911B
:100520003F912F910F900FBE0F901F901895EEE600
:10053000F0E080818160808381E085BD0895E3E102
:10054000F1E082E084831382128211821082089586
:10055000882319F0269A2E9808952E9A089581E0FE
:100560000E94A8022FE788E391E02150804090404C
:10057000E1F700C0000080E00E94A8022FE788E3B6
:1005800091E0215080409040E1F700C0000081E000
:100590000E94A8022FE788E391E02150804090401C
:1005A000E1F700C0000080E00E94A802089581E009
:1005B0000E94A8022FEF84E39CE0215080409040ED
:1005C000E1F700C0000080E00E94A802089581E0E9
:1005D0000E94A8022FEF80E792E0215080409040D7
:1005E000E1F700C0000080E00E94A802089589B1F0
:1005F00090E080959095959587959595879595959B
:100600008795837090910801891322C0882301F196
:1006100020910601309107012C3D95E0390760F4E7
:100620002F5F3F4F3093070120930601EFECF7E077
:100630003197F1F700C000002091060130910701C9
:100640002A30310571F0283E334051F080E00895A2
:1006500080930801109207011092060180E008952E
:1006600083E00895AF92BF92CF92DF92EF92FF9214
:100670000F931F93CF93DF93CDB7DEB763970FB67A
:10068000F894DEBF0FBECDBF0E949F020E94AF0252
:10069000CE0101960E94C309C980A12CD12C00E093
:1006A00010E00F2EF3E1EF2EF1E0FF2EF02D0F2ED4
:1006B000FCE3BF2EF02D05C08C1511F00F5F1F4F0E
:1006C000C82E9801ADECBCEC0E947E0D96958795E6
:1006D00096958795969587959C01220F331F880FD5
:1006E000991F880F991F880F991F820F931F9801D8
:1006F000281B390BF70120839801A9E8B8E80E946C
:100700007E0DAC0156954795529542954F70452701
:100710005F704527B49EC001B59E900D1124281B23
:10072000390BADECBCEC0E947E0D969587959695A5
:1007300087959695879581839A010E947E0D96955F
:10074000879596958795969587959C01220F331FDF
:10075000880F991F880F991F880F991F820F931F69
:10076000481B590B42839801369527953695279556
:1007700036952795AFE4BBE10E947E0D969587954F
:1007800096958795969587958383DD20E1F00B31CB
:10079000110531F481E00E94A802AA24A39417C095
:1007A000AA2089F00032110558F40C31110558F0D7
:1007B000C8014B97F1E08F2781700E94A80203C007
:1007C00080E00E94A802053823E01207A8F50E94E5
:1007D000F702882319F1813031F40E94E702A12C3D
:1007E000DD24D3941BC08230A1F40E94AF020E948A
:1007F0009F028FEC97E00197F1F700C00000CE0157
:1008000001960E94C3098981A12CD12C00E010E03F
:1008100057CF833019F40E94D7020EC0EFECF7E0F7
:100820003197F1F700C00000CE0101960E94C30984
:100830008981D11041CF44CF80E063960FB6F89400
:10084000DEBF0FBECDBFDF91CF911F910F91FF9003
:10085000EF90DF90CF90BF90AF9008953F924F926E
:100860005F926F927F928F929F92AF92BF92CF9240
:10087000DF92EF92FF920F931F93CF93DF93CDB749
:10088000DEB729970FB6F894DEBF0FBECDBFE3E108
:10089000F1E081E084838DE283838283818380839E
:1008A000512CE12CF12C6F010F2EFAE0AF2EB12C60
:1008B000F02D44244A940F2EF4E68F2E912CF02D27
:1008C0000F2EFDE23F2EF02D66246394712C02C0A2
:1008D000E12CF12CE114F10479F422E049E250E03A
:1008E0006AE270E08BE290E00E94CD0178940E9471
:1008F000F702811168C08CC088EEE81683E0F80624
:1009000009F05DC08E010F5F1F4F22E049E250E009
:100910006AE270E08BE290E00E94EA012A8130E016
:10092000322F22278981282B33233CF4F60133828E
:10093000C301821B930B9C0102C0F6014382C901D3
:100940008F709927AC01440F551F880F991F880F8E
:10095000991F880F991F840F951F959587959595D9
:1009600087959595879595958795F601808335951B
:1009700027953595279535952795359527952436CF
:1009800031053CF0C901B4010E94640D6383282F36
:10099000392FC9010996439728F0C901B5010E9472
:1009A000640D01C0642DF6016283C901B5010E9486
:1009B000640D81830E94F702811105C022C00E944C
:1009C000F702882321F08130C1F08230C1F08FEC32
:1009D00097E00197F1F700C0000099EEE91693E067
:1009E000F90620F4EFEFEE1AFE0A74CF5394F7E005
:1009F000F51508F06DCF80E012C082E010C085E0F0
:100A00000EC08FEC97E00197F1F700C00000EACF2D
:100A1000EFECF7E03197F1F700C00000E3CF299643
:100A20000FB6F894DEBF0FBECDBFDF91CF911F91FF
:100A30000F91FF90EF90DF90CF90BF90AF909F907D
:100A40008F907F906F905F904F903F9008953F926E
:100A50004F925F926F927F928F929F92AF92BF92CE
:100A6000CF92DF92EF92FF920F931F93CF93DF937A
:100A7000E3E1F1E081E0848385E783838FEF828384
:100A8000818380837894ECE7F0E080818F708083AD
:100A90008081807F808380818083EAE7F0E08081AD
:100AA0008064808380911A018823E1F360911801AA
:100AB0007091190180E090E00E94690C2AEA31EF00
:100AC00044E951E40E94C10B60930F01709310013F
:100AD000809311019093120110921A018FE19EE40C
:100AE0000197F1F700C00000ECE7F0E080818F7023
:100AF00080838081807F808380818083EAE7F0E04B
:100B000080818064808380911A018823E1F3609161
:100B100018017091190180E090E00E94690C2AEAA6
:100B200031EF44E951E40E94C10B6B017C016093F9
:100B30000F01709310018093110190931201109294
:100B40001A010E943A0CCDEC6C9F812D11248695E0
:100B50008695869503E111E0F8018283880F982F2E
:100B6000990F990F890F681B618320E030E040E204
:100B700051E4C701B6010E94F70C0E943A0C6C9F29
:100B8000812D1124869586958695880F982F990F2B
:100B9000990F890F681BF8016083C0E0D0E00F2E29
:100BA000F8EEEF2EF3E0FF2EF02D0CE710E00F2E05
:100BB000FAE7AF2EB12CF02D0F2EFBE08F2EF1E0D7
:100BC0009F2EF02D0F2EFDEC3F2EF02D6F010E9479
:100BD000F702813009F483C08FEC97E00197F1F7B9
:100BE00000C0000021969E013695279536952795E1
:100BF00036952795A5ECB0E20E947E0D92958295E0
:100C00008F7089279F7089278E9D90018F9D300D51
:100C10009E9D300D1124C217D30709F05BC0F80167
:100C200080818F7080838081807F808380818083BA
:100C3000F50180818064808380911A018823E1F32B
:100C4000609118017091190180E090E00E94690C98
:100C50002AEA31EF44E951E40E94C10BF4016483B4
:100C600075838683978310921A018FEC97E0019722
:100C7000F1F700C000004480558066807780C30192
:100C8000B2010E943A0C639D812D112486958695B0
:100C90008695F6018283880F982F990F990F890FF7
:100CA000681B618320E030E040E251E4C301B201FF
:100CB0000E94F70C0E943A0C639D812D11248695A9
:100CC00086958695880F982F990F990F890F681B25
:100CD000F6016083C935FBE1DF0709F078CF80E0DA
:100CE000DF91CF911F910F91FF90EF90DF90CF9008
:100CF000BF90AF909F908F907F906F905F904F903C
:100D00003F900895BF92CF92DF92EF92FF920F93A0
:100D10001F93CF93DF93E3E1F1E090818181880F0E
:100D2000182F110F110F810F182F190FC0E0D0E0ED
:100D30000F2EF9E8BF2EF02D0F2EFCE3CF2EF02D55
:100D40007F010FEF0F2EFDECDF2EF02D0E94F7023A
:100D5000882381F0813061F4810F8B9D112D112446
:100D60001295169517701C9D80191124182F02C01A
:100D7000823041F1CB3FD10598F01D9D812D11248A
:100D8000869586958695F7018183880F982F990F10
:100D9000990F890FF12FF81B8F2FF701808303C064
:100DA000F70101830083C43FF1E0DF0710F42196CF
:100DB00002C0C0E0D0E08FEC97E00197F1F700C0EF
:100DC0000000C4CF812F0E94350A8DEC189F812D21
:100DD0001124869586958695E3E1F1E08183880F5D
:100DE000982F990F990F890F181B108384E0DF91BA
:100DF000CF911F910F91FF90EF90DF90CF90BF9018
:100E00000895BF92CF92DF92EF92FF920F931F93BC
:100E1000CF93DF93E3E1F1E082819381990F192F62
:100E2000110F110F190F180FC0E0D0E00F2EFBEAC1
:100E3000BF2EF02D0F2EF8E1CF2EF02D7F010FEFFA
:100E40000F2EFDECDF2EF02D0E94F702882379F0A3
:100E5000813059F4810F8B9D112D112412951F7033
:100E60001C9D80191124182F02C0823041F1CB3F04
:100E7000D10598F01D9D812D112486958695869526
:100E8000F7018383880F982F990F990F890FF12FFE
:100E9000F81B8F2FF701828303C0F70103830283BE
:100EA000C43FF1E0DF0710F4219602C0C0E0D0E0BB
:100EB0008FEC97E00197F1F700C00000C5CF812FBC
:100EC0000E94820A80E0DF91CF911F910F91FF90E5
:100ED000EF90DF90CF90BF900895E3E1F1E08FEFC6
:100EE0008083818382838383848308952F923F92BA
:100EF0004F925F926F927F928F929F92AF92BF922A
:100F0000CF92DF92EF92FF920F931F93CF93DF93D5
:100F1000CDB7DEB767970FB6F894DEBF0FBECDBF73
:100F200055245394BB24BA94A12C0F2EFCE32F2EEE
:100F3000312CF02D0F2EF3E1CF2EF1E0DF2EF02D2E
:100F40006894442441F80CE710E00F2EFAE78F2E46
:100F5000912CF02D0F2EFBE06F2EF1E07F2EF02D67
:100F600086B18170F82ECE0101960E94C309F1105E
:100F700002C0552001F18A81982F9F70F60190835D
:100F800090E09595879595958795959587959595F5
:100F9000879581838B81982F9F70928390E09595A0
:100FA000879595958795959587959595879583834D
:100FB0004482F11034C0FFEFBF121FC02A81822F7C
:100FC00090E09595879595958795959587959595B5
:100FD0008795AC01440F551F880F991F880F991FE3
:100FE000880F991F840F951F2F70820F911D0596F2
:100FF000B1010E94640DB82E16C08A81982F969573
:10100000969596959E71292F220F220F920F8F7021
:10101000890FB81208C00E946D075A2C04C05524CD
:101020005394BB24BA940E94F702882379F081304C
:1010300039F4511083C055245394BB24BA9406C08C
:10104000823009F47DC0833009F47CC0F8018081CE
:101050008F7080838081807F8083808181608083A6
:10106000F40180818064808380911A018823E1F3F8
:10107000609118017091190180E090E00E94690C64
:101080002AEA31EF44E951E40E94C10BF301648381
:10109000758386839783A0921A01E0901801F090DF
:1010A000190120E030EC4FE754E4609100017091A9
:1010B000010180910201909103010E94F70C20E050
:1010C00030E040E85AE30E94F70C6C8B7D8B8E8BEE
:1010D0009F8BB70180E090E00E94690C20E030E037
:1010E00040E85AE30E94F70C9B01AC016C897D89B2
:1010F0008E899F890E94550B6093000170930101B6
:10110000809302019093030120E030E040E85CE32B
:101110000E94F70C9B01AC0160E070E080E791E475
:101120000E94540B0E94330C6093040180910401CF
:1011300088230CF015CFA092040112CF81E003C0E8
:1011400085E001C083E067960FB6F894DEBF0FBE5E
:10115000CDBFDF91CF911F910F91FF90EF90DF9066
:10116000CF90BF90AF909F908F907F906F905F9047
:101170004F903F902F9008958AB1877E8AB98BB1A6
:1011800088618BB90E946D070E94970278940E9433
:101190008209ECE7F0E08081807F8083808180831A
:1011A000EAE7F0E0808187608083808188608083C7
:1011B00080818068808380818064808380E0823049
:1011C00091F028F4882349F0813051F018C0843020
:1011D00081F060F0853081F012C00E947607EFCF79
:1011E0000E942E04ECCF0E942705E9CF0E948206C0
:1011F000E6CF0E940107E3CF0E943203E0CF0E94B6
:101200007607DDCF80E094E0909319018093180178
:1012100010921A01EBE0F1E080E090E0A0E8BFE777
:1012200080839183A283B38384839583A683B783CA
:1012300008951092B900BC0180E090E00E94690C12
:101240009B01AC0160E070E08AEF95E40E94C10B65
:101250000E943A0C603188F070E060517109072EED
:10126000000C880B990B0E946B0C20E030E040E0F2
:101270005EE30E94F70C0E943A0C6093B80088B1BC
:10128000806388B9089584E98093BC0080E0ECEB2A
:10129000F0E0908194FF0EC08A3531F482E08A95A7
:1012A000F1F700C084E6089592E09A95F1F700C046
:1012B0008F5FEFCF8A3590F780E0089580E0ECEB08
:1012C000F0E09081992374F08A3531F482E08A95B8
:1012D000F1F700C084E6089592E09A95F1F700C016
:1012E0008F5FEFCF8A3590F780E008952091B900A5
:1012F000287F30E090E02817390711F08AE0089540
:1013000080E00895EF92FF921F93CF93DF9380E9DF
:1013100091E00E941909CCEBD0E084EA88830E9416
:101320005E090F2EFBEBEF2EF12CF02D80EDF70177
:10133000808314E818830E945E0988E20E9476097F
:101340008EE0F701808318830E945E0988E20E9484
:10135000760980E2F701808318830E945E0988E2A3
:101360000E94760988E0F701808318830E945E0955
:1013700088E20E9476090E944309DF91CF911F9174
:10138000FF90EF9008959F92AF92BF92CF92DF921D
:10139000EF92FF920F931F93CF93DF935C01CCEBFF
:1013A000D0E004EA08830E945E090F2EFBEBEF2ECB
:1013B000F12CF02D80EDF701808314E818830E9452
:1013C0005E0988E20E947609F701108218830E9464
:1013D0005E0988E20E9476090E94430908830E9400
:1013E0005E0981EDF701808318830E945E0988E21F
:1013F0000E9476090E945E09E5016501F3E1CF0EC6
:10140000D11C0F2EFCEBEF2EF12CF02D0F2EF4EC57
:101410009F2EF02D0BEB10E0F70190820E945E09E9
:10142000F801808189930E945E0980E50E94760917
:10143000CC15DD0589F784E88093BC000E945E0925
:101440008091BB00F50186830E945E0988E50E94B9
:101450007609DF91CF911F910F91FF90EF90DF9070
:10146000CF90BF90AF909F900895EF92FF920F930F
:101470001F93CF93DF939DEC899F912D1124969517
:1014800096959695092F0295007F990F292F220F87
:10149000220F920F891B082BCCEBD0E084EA8883C3
:1014A0000E945E090F2EFBEBEF2EF12CF02D80ED4C
:1014B000F701808314E818830E945E0988E20E9485
:1014C0007609F701108218830E945E0988E20E9463
:1014D0007609F701108218830E945E0988E20E9453
:1014E0007609F701008318830E945E0988E20E9452
:1014F00076090E944309DF91CF911F910F91FF90D0
:10150000EF900895EF92FF920F931F93CF93DF9385
:101510009DEC899F912D1124969596959695092F6E
:101520000295007F990F292F220F220F920F891BFE
:10153000082BCCEBD0E084EA88830E945E090F2E52
:10154000FBEBEF2EF12CF02D80EDF701808314E8FA
:1015500018830E945E0988E20E94760982E0F70102
:10156000808318830E945E0988E20E947609F70151
:10157000008318830E945E0988E20E9476090E9417
:101580004309DF91CF911F910F91FF90EF90089544
:101590003A9A42988AB182628AB98BB18D7D8BB9B1
:1015A00084B18D6384B985B1827C85B9219A3B9AD7
:1015B0008AB1806C8AB9299A439A8BB1806C8BB9B5
:1015C0000895CF93DF93C82FD62F0E94C80AD11158
:1015D0002C9A8C2F90E08637910508F04DC0FC01C5
:1015E000EC5CFF4F0C94780D85B1896285B98BB1A5
:1015F00082628BB9429A42C085B1896085B93EC08A
:1016000085B1856285B9599A429A38C085B18D6293
:1016100085B9599A33C085B18D6085B95D9A2EC060
:1016200085B18C6285B98BB182628BB927C085B1D7
:101630008C6285B98BB182628BB9429A1FC085B129
:10164000896085B98BB182628BB918C085B18D6212
:1016500085B98BB182628BB9429A10C085B18D6217
:1016600085B98BB182628BB909C085B1886285B9B1
:10167000429A04C02A9A02C00E94C80ADF91CF9100
:101680000895823059F018F4813031F00895833094
:1016900039F0843039F00895439808955E9808959C
:1016A0005F980895299808955058BB27AA270E944B
:1016B0006C0B0C94BD0C0E94AF0C38F00E94B60C61
:1016C00020F039F49F3F19F426F40C94AC0C0EF47E
:1016D000E095E7FB0C94A60CE92F0E94CE0C58F382
:1016E000BA17620773078407950720F079F4A6F507
:1016F0000C94F00C0EF4E0950B2EBA2FA02D0B01DC
:10170000B90190010C01CA01A0011124FF27591B46
:1017100099F0593F50F4503E68F11A16F040A22F4C
:10172000232F342F4427585FF3CF469537952795BD
:10173000A795F0405395C9F77EF41F16BA0B620BBC
:10174000730B840BBAF09150A1F0FF0FBB1F661F03
:10175000771F881FC2F70EC0BA0F621F731F841F46
:1017600048F4879577956795B795F7959E3F08F06C
:10177000B0CF9395880F08F09927EE0F979587952E
:1017800008950E94D50B0C94BD0C0E94B60C58F025
:101790000E94AF0C40F029F45F3F29F00C94A60C96
:1017A00051110C94F10C0C94AC0C0E94CE0C68F30B
:1017B0009923B1F3552391F3951B550BBB27AA270A
:1017C00062177307840738F09F5F5F4F220F331F44
:1017D000441FAA1FA9F335D00E2E3AF0E0E832D00C
:1017E00091505040E695001CCAF72BD0FE2F29D00F
:1017F000660F771F881FBB1F261737074807AB07E1
:10180000B0E809F0BB0B802DBF01FF2793585F4F55
:101810003AF09E3F510578F00C94A60C0C94F10C14
:101820005F3FE4F3983ED4F3869577956795B79537
:10183000F7959F5FC9F7880F911D9695879597F942
:101840000895E1E0660F771F881FBB1F62177307BB
:101850008407BA0720F0621B730B840BBA0BEE1FD0
:1018600088F7E09508950E943A0C6894B1110C94A1
:10187000F10C08950E94D60C88F09F5798F0B92F6C
:101880009927B751B0F0E1F0660F771F881F991FB5
:101890001AF0BA95C9F714C0B13091F00E94F00C5B
:1018A000B1E008950C94F00C672F782F8827B85F6B
:1018B00039F0B93FCCF3869577956795B395D9F70D
:1018C0003EF490958095709561957F4F8F4F9F4F17
:1018D0000895E89409C097FB3EF490958095709523
:1018E00061957F4F8F4F9F4F9923A9F0F92F96E96C
:1018F000BB279395F695879577956795B795F111E1
:10190000F8CFFAF4BB0F11F460FF1BC06F5F7F4F7D
:101910008F4F9F4F16C0882311F096E911C077238F
:1019200021F09EE8872F762F05C0662371F096E898
:10193000862F70E060E02AF09A95660F771F881F67
:10194000DAF7880F9695879597F9089597F99F6725
:1019500080E870E060E008959FEF80EC0895002437
:101960000A941616170618060906089500240A9404
:1019700012161306140605060895092E0394000C8A
:1019800011F4882352F0BB0F40F4BF2B11F460FF19
:1019900004C06F5F7F4F8F4F9F4F089557FD905842
:1019A000440F551F59F05F3F71F04795880F97FB23
:1019B000991F61F09F3F79F08795089512161306DD
:1019C0001406551FF2CF4695F1DF08C0161617060C
:1019D0001806991FF1CF8695710561050894089541
:1019E000E894BB2766277727CB0197F908950E94D3
:1019F0000A0D0C94BD0C0E94AF0C38F00E94B60C7E
:101A000020F0952311F00C94A60C0C94AC0C11242E
:101A10000C94F10C0E94CE0C70F3959FC1F3950FBE
:101A200050E0551F629FF001729FBB27F00DB11D62
:101A3000639FAA27F00DB11DAA1F649F6627B00DF2
:101A4000A11D661F829F2227B00DA11D621F739FDB
:101A5000B00DA11D621F839FA00D611D221F749FE9
:101A60003327A00D611D231F849F600D211D822F30
:101A7000762F6A2F11249F5750409AF0F1F0882357
:101A80004AF0EE0FFF1FBB1F661F771F881F915084
:101A90005040A9F79E3F510580F00C94A60C0C9481
:101AA000F10C5F3FE4F3983ED4F386957795679504
:101AB000B795F795E7959F5FC1F7FE2B880F911DAE
:101AC0009695879597F9089597FB072E16F400943D
:101AD00007D077FD09D00E948D0D07FC05D03EF49C
:101AE000909581959F4F0895709561957F4F0895CA
:101AF000EE0FFF1F0590F491E02D0994A29FB00115
:101B0000B39FC001A39F700D811D1124911DB29F31
:101B1000700D811D1124911D0895AA1BBB1B51E15D
:101B200007C0AA1FBB1FA617B70710F0A61BB70B4D
:101B3000881F991F5A95A9F780959095BC01CD01F2
:061B40000895F894FFCFA8
:061B460000C07F440F0007
:00000001FF
