S00F0000636C6F636B30312E73726563A8
S11300000C94B2000C94DA000C94DA000C94DA002C
S11300100C94DA000C94DA000C94DA000C94DA00F4
S11300200C94DA000C94DA000C94DA000C94DA00E4
S11300300C94DA000C94DA000C94DA000C94DA00D4
S11300400C9440020C94DA000C94DA000C94DA005C
S11300500C94DA000C9423020C94DA000C94DA0069
S11300600C94DA000C94DA0038093B093E09410982
S1130070440947094A09420B4A0B4E0B540B590BCE
S11300805E0B650B6D0B740B7C0B8A0B8A0B8A0B56
S11300908A0B8A0B8A0B8A0B8A0B8A0B8A0B8A0BB4
S11300A08A0B8A0B8A0B8A0B8A0B8A0B8A0B8A0BA4
S11300B08A0B8A0B8A0B8A0B8A0B8A0B8A0B8A0B94
S11300C08A0B8A0B8A0B8A0B8A0B8A0B8A0B8A0B84
S11300D0880B8A0B8A0B8A0B8A0B8A0B8A0B8A0B76
S11300E08A0B8A0B8A0B8A0B8A0B8A0B8A0B8A0B64
S11300F08A0B8A0B8A0B8A0B8A0B8A0B8A0B8A0B54
S11301008A0B8A0B8A0B8A0B8A0B8A0B8A0B8A0B43
S11301108A0B8A0B8A0B8A0B8A0B8A0B8A0B8A0B33
S11301208A0B8A0B8A0B8A0B8A0B8A0B8A0B8A0B23
S11301308A0B8A0B8A0B8A0B8A0B8A0B8A0B8A0B13
S11301408A0B8A0B8A0B8A0B8A0B8A0B8A0B8A0B03
S11301508A0B8A0B8A0B8A0B8A0B8A0B8A0B8A0BF3
S1130160830B500911241FBECFEFD8E0DEBFCDBFF3
S113017011E0A0E0B1E0E2EEFBE102C005900D92D7
S1130180A830B107D9F721E0A8E0B1E001C01D9281
S1130190AE31B207E1F710E0C2EBD0E004C0219722
S11301A0FE010E94C60DC13BD107C9F70E940C098C
S11301B00C94EF0D0C940000CF93DF93DC01FB0152
S11301C0808121E030E002C0220F331F4A95E2F71C
S11301D0822B80838C91922F909589238C93C7EEE8
S11301E0D3E02197F1F700C000008C91282B2C93C9
S11301F08081982390838FEC97E00197F1F700C0FA
S11302000000DF91CF910895DC01FB01F894908107
S113021021E030E002C0220F331F4A95E2F7922B0F
S113022090839C91209592239C938AE08A95F1F780
S113023000C08081282320838AEC8A95F1F700C0CE
S11302400895DC01FB01F894908121E030E002C0C4
S1130250220F331F4A95E2F7922B90839C912095AD
S113026092239C938AEA8A95F1F700C0808128231F
S113027020838AE28A95F1F700C00895CF92DF9235
S1130280EF92FF920F931F93CF93DF936C017B0147
S1130290042F122FC8E0D0E010FF06C0402FB70192
S11302A0C6010E94040105C0402FB701C6010E9487
S11302B021011695219781F7DF91CF911F910F911D
S11302C0FF90EF90DF90CF9008958F929F92AF921E
S11302D0BF92CF92DF92EF92FF920F931F93CF932F
S11302E0DF93DB01F894EE2009F450C061E070E084
S11302F0022E02C0660F771F0A94E2F7A62EB62ECE
S1130300B09468010E0D111DE7E0F0E07F01E21AE0
S1130310F1084601E6011882E0E0F0E02C912A2978
S11303202C93EC0128812B212883D5E0DA95F1F771
S113033000002C912B212C932AE22A95F1F700C07E
S1130340EA01288130E0262337230E2C02C0220F35
S1130350331F0A94E2F7E4013881232BE730F105D7
S113036014F0288305C030E035952795E4012883EF
S1130370D5E7DA95F1F700003196E830F10571F62A
S1130380EFEFCE1ADE0A0C151D0519F67894DF91ED
S1130390CF911F910F91FF90EF90DF90CF90BF907E
S11303A0AF909F908F900895FF920F931F93CF93D8
S11303B0DF93EC018B01F22E422F0E94DC002CEC27
S11303C04F2DB801CE010E943E0124E44F2DB80107
S11303D0CE010E943E01DF91CF911F910F91FF90BA
S11303E00895AF92BF92CF92DF92EF92FF920F9354
S11303F01F93CF93DF93EC016B015A01F22E422F2E
S11304000E94DC002CEC4F2DB601CE010E943E016F
S11304102EEB4F2DB601CE010E943E010F2EF9E0C6
S1130420EF2EF02D2F2DA501B601CE010E946501FE
S1130430DF91CF911F910F91FF90EF90DF90CF90BC
S1130440BF90AF9008951F920F920FB60F92112490
S11304508F939F93809178009091790090931C01E1
S113046080931B0181E080931D018AE18A95F1F755
S113047000C09F918F910F900FBE0F901F90189501
S11304801F920F920FB60F9211242F933F934F9305
S11304905F936F937F938F939F93AF93BF93EF93E8
S11304A0FF9380910D018F3009F50E94160B209166
S11304B01A0190910C01E92FF0E0EA5EFE4F808171
S11304C061E0291360E00E942F0B90910C0184E0FD
S11304D0891B0E948F0B80910C018F5F843018F46C
S11304E080930C0111C010920C010EC040910601C2
S11304F090E02FE030E0241B310947FD339582174B
S1130500930711F40E94160B80910D018F3010F4A3
S11305108F5F01C080E080930D01FF91EF91BF9147
S1130520AF919F918F917F916F915F914F913F9187
S11305302F910F900FBE0F901F901895EEE6F0E0EC
S113054080818160808381E085BD0895E6E1F1E0EA
S113055082E0848313821282118210820895882398
S113056019F0269A2E9808952E9A089581E00E94F3
S1130570AF022FE788E391E0215080409040E1F7FB
S113058000C0000080E00E94AF022FE788E391E002
S1130590215080409040E1F700C0000081E00E94BB
S11305A0AF022FE788E391E0215080409040E1F7CB
S11305B000C0000080E00E94AF02089581E00E9424
S11305C0AF022FEF84E39CE0215080409040E1F79C
S11305D000C0000080E00E94AF02089581E00E9404
S11305E0AF022FEF80E792E0215080409040E1F786
S11305F000C0000080E00E94AF020895CF93DF9313
S1130600AC019C01ADECBCEC0E94CC0D9695879599
S113061096958795969587959C01220F331F880F91
S1130620991F880F991F880F991F820F931F9A0192
S1130630281B390BC6E1D1E028839A01A9E8B8E860
S11306400E94CC0DFC01F695E795F295E295EF70CA
S1130650EF27FF70EF272CE32E9FC0012F9F900DF3
S113066011249A01281B390BADECBCEC0E94CC0D73
S113067096958795969587959695879589839F01F5
S11306800E94CC0D96958795969587959695879516
S11306909C01220F331F880F991F880F991F880F01
S11306A0991F820F931FE81BF90BEA839A01369571
S11306B027953695279536952795AFE4BBE10E949B
S11306C0CC0D9695879596958795969587958B836A
S11306D0DF91CF91089589B190E08095909595959B
S11306E087959595879595958795982F9370809183
S11306F00B0198132BC0992349F1209109013091E2
S11307000A012C3D85E0380760F42F5F3F4F30939A
S11307100A0120930901EFECF7E03197F1F700C0EB
S113072000002091090130910A012A30310521F499
S11307309093080180E00895283E3340A9F40E9474
S1130740DE0283E08093080180E00895809108012F
S1130750882319F010920801089590930B011092C8
S11307600A0110920901089580E00895809104011E
S1130770909105010E94FE020E946B038823B1F34D
S1130780813061F480910401909105010196909368
S11307900501809304010E94EE02E8CF823061F4E7
S11307A08091040190910501019790930501809334
S11307B004010E94EE02DACF8330C1F680E008958E
S11307C0BF92CF92DF92EF92FF920F931F93CF933A
S11307D0DF93CDB7DEB763970FB6F894DEBF0FBED5
S11307E0CDBF0E94A6020E94B602C12CD12C00E00B
S11307F010E0E12CBB24B394CE0101960E94110AAF
S1130800F980DD2009F465C0EF1409F456C00F5FC8
S11308101F4F53C08B2D0E94AF0202C0CC2031F178
S113082080910401909105019C012C5F3F4F20179A
S11308303107A0F080179107B0F49801281B390BF9
S1130840C90131E0832781700E94AF0280910401C5
S11308509091050104968017910738F480E00E9476
S1130860AF02CB2C03C0CB2C01C0CB2C053883E0CA
S1130870180798F50E946B038823B9F0813029F496
S11308800E94EE02C12CDB2C10C0823049F40E947D
S1130890B6020E94A602C12CD12C00E010E005C0D3
S11308A0833019F40E94DE0218C08FEC97E00197A0
S11308B0F1F700C00000EF2C9FCFC8010E94FE0298
S11308C080910401909105018017910709F0A6CF4A
S11308D0A1CFC8010E94FE02C9CF80E063960FB683
S11308E0F894DEBF0FBECDBFDF91CF911F910F9162
S11308F0FF90EF90DF90CF90BF9008953F924F927A
S11309005F926F927F928F929F92AF92BF92CF929B
S1130910DF92EF92FF920F931F93CF93DF93CDB7A4
S1130920DEB729970FB6F894DEBF0FBECDBFE6E160
S1130930F1E081E084838DE28383828381838083F9
S1130940512CE12CF12C6F010F2EFAE0AF2EB12CBB
S1130950F02D44244A940F2EF4E68F2E912CF02D82
S11309600F2EFDE23F2EF02D66246394712C02C0FD
S1130970E12CF12CE114F10479F422E049E250E095
S11309806AE270E08BE290E00E94D40178940E94C5
S11309906B03811168C08CC088EEE81683E0F8060A
S11309A009F05DC08E010F5F1F4F22E049E250E065
S11309B06AE270E08BE290E00E94F1012A8130E06B
S11309C0322F22278981282B33233CF4F6013382EA
S11309D0C301821B930B9C0102C0F6014382C9012F
S11309E08F709927AC01440F551F880F991F880FEA
S11309F0991F880F991F840F951F95958795959535
S1130A0087959595879595958795F6018083359576
S1130A10279535952795359527953595279524362A
S1130A2031053CF0C901B4010E94B20D6383282F43
S1130A30392FC9010996439728F0C901B5010E94CD
S1130A40B20D01C0642DF6016283C901B5010E9493
S1130A50B20D81830E946B03811105C022C00E94E4
S1130A606B03882321F08130C1F08230C1F08FEC18
S1130A7097E00197F1F700C0000099EEE91693E0C2
S1130A80F90620F4EFEFEE1AFE0A74CF5394F7E060
S1130A90F51508F06DCF80E012C082E010C085E04B
S1130AA00EC08FEC97E00197F1F700C00000EACF89
S1130AB0EFECF7E03197F1F700C00000E3CF29969F
S1130AC00FB6F894DEBF0FBECDBFDF91CF911F915B
S1130AD00F91FF90EF90DF90CF90BF90AF909F90D9
S1130AE08F907F906F905F904F903F9008953F92CA
S1130AF04F925F926F927F928F929F92AF92BF922A
S1130B00CF92DF92EF92FF920F931F93CF93DF93D5
S1130B10E6E1F1E081E0848385E783838FEF8283DC
S1130B20818380837894ECE7F0E080818F70808308
S1130B308081807F808380818083EAE7F0E0808108
S1130B408064808380911D018823E1F360911B01FF
S1130B5070911C0180E090E00E94B70C2AEA31EF0A
S1130B6044E951E40E940F0C609312017093130145
S1130B70809314019093150110921D018FE19EE45E
S1130B800197F1F700C00000ECE7F0E080818F707E
S1130B9080838081807F808380818083EAE7F0E0A6
S1130BA080818064808380911D018823E1F36091BA
S1130BB01B0170911C0180E090E00E94B70C2AEAAE
S1130BC031EF44E951E40E940F0C6B017C01609306
S1130BD012017093130180931401909315011092E4
S1130BE01D010E94880CCDEC6C9F812D11248695EB
S1130BF08695869506E111E0F8018283880F982F87
S1130C00990F990F890F681B618320E030E040E25F
S1130C1051E4C701B6010E94450D0E94880C6C9FE7
S1130C20812D1124869586958695880F982F990F86
S1130C30990F890F681BF8016083C0E0D0E00F2E84
S1130C40F8EEEF2EF3E0FF2EF02D0CE710E00F2E60
S1130C50FAE7AF2EB12CF02D0F2EFEE08F2EF1E02F
S1130C609F2EF02D0F2EFDEC3F2EF02D6F010E94D4
S1130C706B03813009F483C08FEC97E00197F1F79F
S1130C8000C0000021969E0136952795369527953C
S1130C9036952795A5ECB0E20E94CC0D92958295ED
S1130CA08F7089279F7089278E9D90018F9D300DAD
S1130CB09E9D300D1124C217D30709F05BC0F801C3
S1130CC080818F7080838081807F80838081808316
S1130CD0F50180818064808380911D018823E1F384
S1130CE060911B0170911C0180E090E00E94B70CA0
S1130CF02AEA31EF44E951E40E940F0CF4016483C1
S1130D0075838683978310921D018FEC97E001977A
S1130D10F1F700C000004480558066807780C301ED
S1130D20B2010E94880C639D812D112486958695BD
S1130D308695F6018283880F982F990F990F890F52
S1130D40681B618320E030E040E251E4C301B2015A
S1130D500E94450D0E94880C639D812D1124869567
S1130D6086958695880F982F990F990F890F681B80
S1130D70F6016083C935FBE1DF0709F078CF80E035
S1130D80DF91CF911F910F91FF90EF90DF90CF9063
S1130D90BF90AF909F908F907F906F905F904F9097
S1130DA03F900895BF92CF92DF92EF92FF920F93FC
S1130DB01F93CF93DF93E6E1F1E090818181880F67
S1130DC0182F110F110F810F182F190FC0E0D0E049
S1130DD00F2EF9E8BF2EF02D0F2EFCE3CF2EF02DB1
S1130DE07F010FEF0F2EFDECDF2EF02D0E946B0321
S1130DF0882381F0813061F4810F8B9D112D1124A2
S1130E001295169517701C9D80191124182F02C075
S1130E10823041F1CB3FD10598F01D9D812D1124E5
S1130E20869586958695F7018183880F982F990F6B
S1130E30990F890FF12FF81B8F2FF701808303C0BF
S1130E40F70101830083C43FF1E0DF0710F421962A
S1130E5002C0C0E0D0E08FEC97E00197F1F700C04A
S1130E600000C4CF812F0E94830A8DEC189F812D2E
S1130E701124869586958695E6E1F1E08183880FB5
S1130E80982F990F990F890F181B108384E0DF9115
S1130E90CF911F910F91FF90EF90DF90CF90BF9073
S1130EA00895BF92CF92DF92EF92FF920F931F9318
S1130EB0CF93DF93E6E1F1E082819381990F192FBB
S1130EC0110F110F190F180FC0E0D0E00F2EFBEA1D
S1130ED0BF2EF02D0F2EF8E1CF2EF02D7F010FEF56
S1130EE00F2EFDECDF2EF02D0E946B03882379F08A
S1130EF0813059F4810F8B9D112D112412951F708F
S1130F001C9D80191124182F02C0823041F1CB3F5F
S1130F10D10598F01D9D812D112486958695869581
S1130F20F7018383880F982F990F990F890FF12F59
S1130F30F81B8F2FF701828303C0F7010383028319
S1130F40C43FF1E0DF0710F4219602C0C0E0D0E016
S1130F508FEC97E00197F1F700C00000C5CF812F17
S1130F600E94D00A86E0DF91CF911F910F91FF90EC
S1130F70EF90DF90CF90BF900895E6E1F1E08FEF1E
S1130F808083818382838383848308952F923F9215
S1130F904F925F926F927F928F929F92AF92BF9285
S1130FA0CF92DF92EF92FF920F931F93CF93DF9331
S1130FB0CDB7DEB767970FB6F894DEBF0FBECDBFCF
S1130FC055245394BB24BA94A12C0F2EFCE32F2E4A
S1130FD0312CF02D0F2EF6E1CF2EF1E0DF2EF02D87
S1130FE06894442441F80CE710E00F2EFAE78F2EA2
S1130FF0912CF02D0F2EFEE06F2EF1E07F2EF02DC0
S113100089B18170F82ECE0101960E94110AF11067
S113101002C0552001F18A81982F9F70F6019083B8
S113102090E0959587959595879595958795959550
S1131030879581838B81982F9F70928390E09595FB
S113104087959595879595958795959587958383A8
S11310504482F11034C0FFEFBF121FC02A81822FD7
S113106090E0959587959595879595958795959510
S11310708795AC01440F551F880F991F880F991F3E
S1131080880F991F840F951F2F70820F911D05964D
S1131090B1010E94B20DB82E16C08A81982F969580
S11310A0969596959E71292F220F220F920F8F707D
S11310B0890FB81208C00E94BD075A2C04C05524D9
S11310C05394BB24BA940E946B03882379F0813033
S11310D039F4511083C055245394BB24BA9406C0E8
S11310E0823009F47DC0833009F47CC0F80180812A
S11310F08F7080838081807F808380818160808302
S1131100F40180818064808380911D018823E1F350
S113111060911B0170911C0180E090E00E94B70C6B
S11311202AEA31EF44E951E40E940F0CF30164838D
S1131130758386839783A0921D01E0901B01F09034
S11311401C0120E030EC4FE754E460910001709101
S1131150010180910201909103010E94450D20E05C
S113116030E040E85AE30E94450D6C8B7D8B8E8BFA
S11311709F8BB70180E090E00E94B70C20E030E044
S113118040E85AE30E94450D9B01AC016C897D89BE
S11311908E899F890E94A30B6093000170930101C3
S11311A0809302019093030120E030E040E85CE387
S11311B00E94450D9B01AC0160E070E080E791E482
S11311C00E94A20B0E94810C60930601809106018B
S11311D088230CF015CFA092060112CF81E003C042
S11311E085E001C083E067960FB6F894DEBF0FBEBA
S11311F0CDBFDF91CF911F910F91FF90EF90DF90C2
S1131200CF90BF90AF909F908F907F906F905F90A2
S11312104F903F902F9008958AB1877E8AB98BB101
S113122088618BB90E94BD070E949E0278940E9437
S1131230D009ECE7F0E08081807F80838081808327
S1131240EAE7F0E080818760808380818860808322
S113125080818068808380818064808380E090E0E6
S113126087309105D0F4FC01EC5CFF4F0C94C60D63
S11312700E94C607F4CF0E947E04F1CF0E94770536
S1131280EECF0E94D206EBCF0E945107E8CF0E9416
S1131290E003E5CF0E94B603E2CF0E94C607DFCF8A
S11312A080E094E090931C0180931B0110921D0137
S11312B0EEE0F1E080E090E0A0E8BFE78083918376
S11312C0A283B38384839583A683B78308951092FE
S11312D0B900BC0180E090E00E94B70C9B01AC0116
S11312E060E070E08AEF95E40E940F0C0E94880C85
S11312F0603188F070E060517109072E000C880B92
S1131300990B0E94B90C20E030E040E05EE30E94BB
S1131310450D0E94880C6093B80088B1806388B939
S1131320089584E98093BC0080E0ECEBF0E09081C8
S113133094FF0EC08A3531F482E08A95F1F700C03B
S113134084E6089592E09A95F1F700C08F5FEFCF9D
S11313508A3590F780E0089580E0ECEBF0E090812E
S1131360992374F08A3531F482E08A95F1F700C04C
S113137084E6089592E09A95F1F700C08F5FEFCF6D
S11313808A3590F780E008952091B900287F30E0F5
S113139090E02817390711F08AE0089580E0089555
S11313A0EF92FF921F93CF93DF9380E991E00E9425
S11313B06709CCEBD0E084EA88830E94AC090F2E45
S11313C0FBEBEF2EF12CF02D80EDF701808314E878
S11313D018830E94AC0988E20E94C4098EE0F701D8
S11313E0808318830E94AC0988E20E94C40980E2C9
S11313F0F701808318830E94AC0988E20E94C40923
S113140088E0F701808318830E94AC0988E20E9477
S1131410C4090E949109DF91CF911F91FF90EF9031
S113142008959F92AF92BF92CF92DF92EF92FF9274
S11314300F931F93CF93DF935C01CCEBD0E004EACE
S113144008830E94AC090F2EFBEBEF2EF12CF02D3C
S113145080EDF701808314E818830E94AC0988E2C8
S11314600E94C409F701108218830E94AC0988E223
S11314700E94C4090E94910908830E94AC0981ED6D
S1131480F701808318830E94AC0988E20E94C40992
S11314900E94AC09E5016501F3E1CF0ED11C0F2ECA
S11314A0FCEBEF2EF12CF02D0F2EF4EC9F2EF02DF3
S11314B00BEB10E0F70190820E94AC09F8018081E7
S11314C089930E94AC0980E50E94C409CC15DD050E
S11314D089F784E88093BC000E94AC098091BB002A
S11314E0F50186830E94AC0988E50E94C409DF9156
S11314F0CF911F910F91FF90EF90DF90CF90BF900D
S1131500AF909F900895EF92FF920F931F93CF9304
S1131510DF939DEC899F912D112496959695969530
S1131520092F0295007F990F292F220F220F920F66
S1131530891B082BCCEBD0E084EA88830E94AC0999
S11315400F2EFBEBEF2EF12CF02D80EDF7018083B5
S113155014E818830E94AC0988E20E94C409F701C8
S1131560108218830E94AC0988E20E94C409F70122
S1131570108218830E94AC0988E20E94C409F70112
S1131580008318830E94AC0988E20E94C4090E9467
S11315909109DF91CF911F910F91FF90EF900895E2
S11315A0EF92FF920F931F93CF93DF939DEC899F4C
S11315B0912D1124969596959695092F0295007F65
S11315C0990F292F220F220F920F891B082BCCEB86
S11315D0D0E084EA88830E94AC090F2EFBEBEF2E47
S11315E0F12CF02D80EDF701808314E818830E941C
S11315F0AC0988E20E94C40982E0F7018083188361
S11316000E94AC0988E20E94C409F7010083188390
S11316100E94AC0988E20E94C4090E949109DF91EA
S1131620CF911F910F91FF90EF9008953A9A4298AD
S11316308AB182628AB98BB18D7D8BB984B18D6395
S113164084B985B1827C85B9219A3B9A8AB1806C30
S11316508AB9299A439A8BB1806C8BB90895CF9338
S1131660DF93C82FD62F0E94160BD1112C9A8C2FE2
S113167090E08637910508F04DC0FC01E55CFF4F12
S11316800C94C60D85B1896285B98BB182628BB920
S1131690429A42C085B1896085B93EC085B18562F0
S11316A085B9599A429A38C085B18D6285B9599ADB
S11316B033C085B18D6085B95D9A2EC085B18C62C9
S11316C085B98BB182628BB927C085B18C6285B92B
S11316D08BB182628BB9429A1FC085B1896085B98A
S11316E08BB182628BB918C085B18D6285B98BB11B
S11316F082628BB9429A10C085B18D6285B98BB173
S113170082628BB909C085B1886285B9429A04C0E6
S11317102A9A02C00E94160BDF91CF91089582305D
S113172059F018F4813031F00895833039F0843061
S113173039F00895439808955E9808955F98089540
S1131740299808955058BB27AA270E94BA0B0C94D5
S11317500B0D0E94FD0C38F00E94040D20F039F4AA
S11317609F3F19F426F40C94FA0C0EF4E095E7FB71
S11317700C94F40CE92F0E941C0D58F3BA1762075D
S113178073078407950720F079F4A6F50C943E0DB1
S11317900EF4E0950B2EBA2FA02D0B01B901900188
S11317A00C01CA01A0011124FF27591B99F0593FCC
S11317B050F4503E68F11A16F040A22F232F342F14
S11317C04427585FF3CF469537952795A795F04062
S11317D05395C9F77EF41F16BA0B620B730B840B77
S11317E0BAF09150A1F0FF0FBB1F661F771F881F2F
S11317F0C2F70EC0BA0F621F731F841F48F4879587
S113180077956795B795F7959E3F08F0B0CF939578
S1131810880F08F09927EE0F9795879508950E94F1
S1131820230C0C940B0D0E94040D58F00E94FD0C27
S113183040F029F45F3F29F00C94F40C51110C94FE
S11318403F0D0C94FA0C0E941C0D68F39923B1F31C
S1131850552391F3951B550BBB27AA2762177307D2
S1131860840738F09F5F5F4F220F331F441FAA1F66
S1131870A9F335D00E2E3AF0E0E832D09150504022
S1131880E695001CCAF72BD0FE2F29D0660F771FD0
S1131890881FBB1F261737074807AB07B0E809F0B6
S11318A0BB0B802DBF01FF2793585F4F3AF09E3F3B
S11318B0510578F00C94F40C0C943F0D5F3FE4F365
S11318C0983ED4F3869577956795B795F7959F5F7E
S11318D0C9F7880F911D9695879597F90895E1E0CA
S11318E0660F771F881FBB1F621773078407BA0729
S11318F020F0621B730B840BBA0BEE1F88F7E09584
S113190008950E94880C6894B1110C943F0D0895B9
S11319100E94240D88F09F5798F0B92F9927B7514A
S1131920B0F0E1F0660F771F881F991F1AF0BA957F
S1131930C9F714C0B13091F00E943E0DB1E0089592
S11319400C943E0D672F782F8827B85F39F0B93F84
S1131950CCF3869577956795B395D9F73EF4909532
S11319608095709561957F4F8F4F9F4F0895E894B0
S113197009C097FB3EF490958095709561957F4FD3
S11319808F4F9F4F9923A9F0F92F96E9BB27939581
S1131990F695879577956795B795F111F8CFFAF491
S11319A0BB0F11F460FF1BC06F5F7F4F8F4F9F4FC2
S11319B016C0882311F096E911C0772321F09EE820
S11319C0872F762F05C0662371F096E8862F70E086
S11319D060E02AF09A95660F771F881FDAF7880F60
S11319E09695879597F9089597F99F6780E870E031
S11319F060E008959FEF80EC089500240A94161681
S1131A00170618060906089500240A9412161306E8
S1131A10140605060895092E0394000C11F4882376
S1131A2052F0BB0F40F4BF2B11F460FF04C06F5F92
S1131A307F4F8F4F9F4F089557FD9058440F551F68
S1131A4059F05F3F71F04795880F97FB991F61F03C
S1131A509F3F79F087950895121613061406551FB3
S1131A60F2CF4695F1DF08C0161617061806991F1F
S1131A70F1CF86957105610508940895E894BB2714
S1131A8066277727CB0197F908950E94580D0C9487
S1131A900B0D0E94FD0C38F00E94040D20F09523DC
S1131AA011F00C94F40C0C94FA0C11240C943F0DCA
S1131AB00E941C0D70F3959FC1F3950F50E0551FC4
S1131AC0629FF001729FBB27F00DB11D639FAA278F
S1131AD0F00DB11DAA1F649F6627B00DA11D661FDE
S1131AE0829F2227B00DA11D621F739FB00DA11DFF
S1131AF0621F839FA00D611D221F749F3327A00DB9
S1131B00611D231F849F600D211D822F762F6A2F54
S1131B1011249F5750409AF0F1F088234AF0EE0FB9
S1131B20FF1FBB1F661F771F881F91505040A9F7E6
S1131B309E3F510580F00C94F40C0C943F0D5F3FD4
S1131B40E4F3983ED4F3869577956795B795F79522
S1131B50E7959F5FC1F7FE2B880F911D969587959A
S1131B6097F9089597FB072E16F4009407D077FD94
S1131B7009D00E94DB0D07FC05D03EF490958195B9
S1131B809F4F0895709561957F4F0895EE0FFF1F45
S1131B900590F491E02D0994A29FB001B39FC00178
S1131BA0A39F700D811D1124911DB29F700D811D85
S1131BB01124911D0895AA1BBB1B51E107C0AA1F44
S1131BC0BB1FA617B70710F0A61BB70B881F991FDA
S1131BD05A95A9F780959095BC01CD010895F89484
S1051BE0FFCF31
S10B1BE200C07F441B000F004A
S9030000FC
