S00F0000636C6F636B30312E73726563A8
S11300000C94AA000C94C7000C94C7000C94C7006D
S11300100C94C7000C94C7000C94C7000C94C70040
S11300200C94C7000C94C7000C94C7000C94C70030
S11300300C94C7000C94C7000C94C7000C94C70020
S11300400C9431020C94C7000C94C7000C94C700A4
S11300500C94C7000C9414020C94C7000C94C700B1
S11300600C94C7000C94C70004080C081008160868
S11300701B08200827082F0836083E084C084C089F
S11300804C084C084C084C084C084C084C084C08CC
S11300904C084C084C084C084C084C084C084C08BC
S11300A04C084C084C084C084C084C084C084C08AC
S11300B04C084C084C084C084C084C084C084C089C
S11300C04C084A084C084C084C084C084C084C088E
S11300D04C084C084C084C084C084C084C084C087C
S11300E04C084C084C084C084C084C084C084C086C
S11300F04C084C084C084C084C084C084C084C085C
S11301004C084C084C084C084C084C084C084C084B
S11301104C084C084C084C084C084C084C084C083B
S11301204C084C084C084C084C084C084C084C082B
S11301304C084C084C084C084C084C084C084C081B
S11301404C084C084C084C084C084C084C084C080B
S11301504C08450811241FBECFEFD8E0DEBFCDBF49
S113016011E0A0E0B1E0E0E6F4E102C005900D92F8
S1130170A030B107D9F721E0A0E0B1E001C01D92A1
S1130180AC30B207E1F70E94F3050C942E0A0C94EC
S11301900000DC01FB01808121E030E002C0220F7D
S11301A0331F4A95E2F7822B80839C91322F30953E
S11301B093239C9387EE93E00197F1F700C000002E
S11301C08C91282B2C938081832380838FEC97E060
S11301D00197F1F700C000000895DC01FB01F894D9
S11301E0908121E030E002C0220F331F4A95E2F7EC
S11301F0922B90839C91209592239C938AE08A95DC
S1130200F1F700C08081282320838AEC8A95F1F7D6
S113021000C00895DC01FB01F894908121E030E0F6
S113022002C0220F331F4A95E2F7922B90839C91D0
S1130230209592239C938AEA8A95F1F700C08081E5
S1130240282320838AE28A95F1F700C00895CF928B
S1130250DF92EF92FF920F931F93CF93DF936C0182
S11302607B01042F122FC8E0D0E010FF06C0402FFE
S1130270B701C6010E94ED0005C0402FB701C601B9
S11302800E940A011695219781F7DF91CF911F9162
S11302900F91FF90EF90DF90CF9008954F925F926F
S11302A07F928F929F92AF92BF92CF92DF92EF9202
S11302B0FF920F931F93CF93DF93DB01F894EE200B
S11302C009F452C061E070E0022E02C0660F771F8D
S11302D00A94E2F7B62EF62EF094680148018E0CCB
S11302E0911CE12CA12C07E010E0021B110926014E
S11302F0E6011882EE2DFA2D2C912B292C93EC017A
S113030028812F212883D5E0DA95F1F700002C917C
S11303102F212C932AE22A95F1F700C0EA012881C3
S1130320E201788030E026233723002E02C0220F1A
S1130330331F0A94E2F72729E730F10514F02883E4
S113034005C0332735952795E2012883D5E7DA954B
S1130350F1F700003196E830F10571F6EFEFCE1AAF
S1130360DE0AC814D90419F67894DF91CF911F914D
S11303700F91FF90EF90DF90CF90BF90AF909F9040
S11303808F907F905F904F900895FF920F931F93EB
S1130390CF93DF93EC018B01F22E422F0E94C90010
S11303A02CEC4F2DB801CE010E94270124E44F2DDF
S11303B0B801CE010E942701DF91CF911F910F91C7
S11303C0FF900895AF92BF92CF92DF92EF92FF9287
S11303D00F931F93CF93DF93EC016B015A01F22E1D
S11303E0422F0E94C9002CEC4F2DB601CE010E9471
S11303F027012EEB4F2DB601CE010E9427010F2EAF
S1130400F9E0EF2EF02D2F2DA501B601CE010E94AB
S11304104E01DF91CF911F910F91FF90EF90DF90EC
S1130420CF90BF90AF9008951F920F920FB60F9286
S113043011248F939F9380917800909179009093E9
S11304400A018093090181E080930B018AE18A9576
S1130450F1F700C09F918F910F900FBE0F901F90E6
S113046018951F920F920FB60F9211242F933F935A
S11304704F935F936F937F938F939F93AF93BF93A8
S1130480EF93FF930E94D8072091080190910301F4
S1130490E92FF0E0EC5FFE4F808161E0291360E01A
S11304A00E94F1079091030184E0891B0E94510886
S11304B0809103018F5F843018F48093030102C09C
S11304C010920301FF91EF91BF91AF919F918F9192
S11304D07F916F915F914F913F912F910F900FBE3C
S11304E00F901F901895EEE6F0E080818160808384
S11304F082E085BD089589B190E0809590959595A9
S11305008795959587959595879583709091020128
S1130510891322C0882301F1209100013091010147
S11305202C3D95E0390760F42F5F3F4F3093010174
S113053020930001EFECF7E03197F1F700C00000E1
S113054020910001309101012A30310571F0283EDB
S1130550334051F080E0089580930201109201012C
S11305601092000180E0089583E008952F923F9255
S11305704F925F926F927F928F929F92AF92BF92AF
S1130580CF92DF92EF92FF920F931F93CF93DF935B
S1130590CDB7DEB729970FB6F894DEBF0FBECDBF37
S11305A0E4E0F1E081E084838DE2838382838183CC
S11305B08083512CE12CF12C312C412C6F010F2E16
S11305C0FAE0AF2EB12CF02D22242A940F2EF4E65B
S11305D08F2E912CF02D66246394712C02C0E32C91
S11305E0F42CE114F10481F422E049E250E06AE2DF
S11305F070E08BE290E00E94C50178940E947B0237
S1130600813009F08CC07EC088EEE81683E0F806DD
S113061009F05EC08E010F5F1F4F22E049E250E0F7
S11306206AE270E08BE290E00E94E2012A8130E00D
S1130630322F22278981282B332344F48DE2F601BB
S11306408383F301E21BF30B9F0102C0F6012382B3
S1130650C9018F709927AC01440F551F880F991F4A
S1130660880F991F880F991F840F951F959587955B
S1130670959587959595879595958795F6018083AA
S1130680359527953595279535952795359527954E
S1130690243631053CF0C901B4010E94000A638389
S11306A0282F392FC9010996439728F0C901B501AC
S11306B00E94000A01C0622DF6016283C901B501DE
S11306C00E94000A81830E947B02813009F51CC0CC
S11306D00E947B028130D1F08FEC97E00197F1F713
S11306E000C0000099EEE91693E0F90620F4EFEF5C
S11306F0EE1AFE0A76CF5394F7E0F51508F06FCFA3
S113070080E014C082E012C082E010C082E00EC01B
S11307108FEC97E00197F1F700C00000E8CFEFEC11
S1130720F7E03197F1F700C00000E1CF29960FB64A
S1130730F894DEBF0FBECDBFDF91CF911F910F9113
S1130740FF90EF90DF90CF90BF90AF909F908F90ED
S11307507F906F905F904F903F902F9008954F92AD
S11307605F926F927F92BF92CF92DF92EF92FF924D
S11307700F931F93CF93DF93E4E0F1E081E0848350
S113078085E783838FEF82838183808380E094E095
S113079090930A018093090110920B01ECE7F0E0B9
S11307A08081807F808380818083EAE7F0E080819C
S11307B08760808380818860808380818068808373
S11307C080818064808378940F2EF9E5EF2EFBE11D
S11307D0FF2EF02DCCE7D0E00F2EFAE7CF2ED12C50
S11307E0F02D0F2EFDECBF2EF02D04E011E08881DA
S11307F08F7088838881807F888388818883F601CD
S113080080818064808380910B018823E1F360916F
S1130810090170910A0180E090E00E9405092AEA2A
S113082031EF44E951E40E9464082B013C01109229
S11308300B010E94D6086B9D812D11248695869507
S11308408695F8018283880F982F990F990F890F45
S1130850681B618320E030E040E251E4C301B2014F
S11308600E9493090E94D6086B9D812D11248695C0
S113087086958695880F982F990F990F890F681B75
S1130880F80160830E947B02813059F08FEC97E07D
S11308900197F1F700C0000091E0E91AF10809F0AE
S11308A0A6CF80E0DF91CF911F910F91FF90EF9041
S11308B0DF90CF90BF907F906F905F904F9008959E
S11308C09F92AF92BF92CF92DF92EF92FF920F93DB
S11308D01F93CF93DF93E4E0F1E090818181880F4F
S11308E0182F110F110F810F182F190FC0E0D0E02E
S11308F00F2EF9E89F2EF02D0F2EFCE3AF2EF02DD6
S11309007F010FEF0F2EFDECBF2EF02DC12CD12C4B
S11309100E947B02882381F0813061F4810F899DDC
S1130920112D11241295169517701A9D80191124F2
S1130930182F02C0823031F1CB3FD10588F01B9DC6
S1130940912D1124969596959695F7019183990F7B
S1130950892F880F880F980F812F891B808303C0EC
S1130960F70101830083C43FF1E0DF0710F421960F
S113097002C0CC2DDD2DEFECF7E03197F1F700C08C
S11309800000C6CF812F0E943C078DEC189F812D5B
S11309901124869586958695E4E0F1E08183880F9D
S11309A0982F990F990F890F181B108384E0DF91FA
S11309B0CF911F910F91FF90EF90DF90CF90BF9058
S11309C0AF909F9008959F92AF92BF92CF92DF9283
S11309D0EF92FF920F931F93CF93DF93E4E0F1E044
S11309E092818381880F182F110F110F810F182FF7
S11309F0190FC0E0D0E00F2EFBEA9F2EF02D0F2E32
S1130A00F8E1AF2EF02D7F010FEF0F2EFDECBF2E7E
S1130A10F02DC12CD12C0E947B02882379F08130E7
S1130A2059F4810F899D112D112412951F701A9D5F
S1130A3080191124182F02C0823031F1CB3FD10527
S1130A4088F01B9D912D1124969596959695F70106
S1130A509383990F892F880F880F980F812F891BF3
S1130A60828303C0F70103830283C43FF1E0DF07FD
S1130A7010F4219602C0CC2DDD2DEFECF7E0319778
S1130A80F1F700C00000C7CF812F0E948E0780E0DD
S1130A90DF91CF911F910F91FF90EF90DF90CF9056
S1130AA0BF90AF909F900895E4E0F1E08FEF8083D2
S1130AB0818382838383848308958F929F92AF92EC
S1130AC0BF92CF92DF92EF92FF920F931F93CF9337
S1130AD0DF93CDB7DEB763970FB6F894DEBF0FBED2
S1130AE0CDBFDD24DA9404E011E06894BB24B1F8AE
S1130AF09924939488248A94A12C0F2EFCE3EF2E3E
S1130B00F12CF02DC9B0CE0101960E94CA062A81AB
S1130B10922F9F70F801908330E035952795359595
S1130B202795359527953595279521834B81842FD6
S1130B308F70828350E05595479555954795559507
S1130B404795559547954383B482C0FC25C0FFEF74
S1130B50DF1216C0A901440F551F220F331F220FA5
S1130B60331F220F331F240F351FA901490F511DB5
S1130B70CA010596B7010E94000AD82EC92C10C0DC
S1130B80220F822F880F880F280F920FD91207C0C7
S1130B900E945405CA2C04C0C92CD82C01C0C92CED
S1130BA00E947B02882309F4ADCF813021F4C11067
S1130BB006C0D82CA7CF833009F0A4CF01C081E0B0
S1130BC063960FB6F894DEBF0FBECDBFDF91CF9111
S1130BD01F910F91FF90EF90DF90CF90BF90AF9057
S1130BE09F908F9008958AB1877E8AB98BB188616E
S1130BF08BB90E9454050E94730278940E9489065E
S1130C0080E0823089F028F4882341F0813049F073
S1130C1014C0833061F0843069F00FC00E945D0518
S1130C20F0CF0E94B602EDCF0E94AF03EACF0E943C
S1130C306004E7CF0E94E304E4CF0E945D05E1CFA6
S1130C401092B900BC0180E090E00E9405099B016C
S1130C50AC0160E070E08AEF95E40E9464080E94B1
S1130C60D608603188F070E060517109072E000CDD
S1130C70880B990B0E94070920E030E040E05EE316
S1130C800E9493090E94D6086093B80088B18063DB
S1130C9088B9089584E98093BC0090E0ECEBF0E01F
S1130CA0808184FF08C09A3551F482E08A95F1F777
S1130CB000C084E608959A35C0F780E0089582E084
S1130CC08A95F1F700C09F5FEBCF90E0ECEBF0E08A
S1130CD08081882344F09A3551F482E08A95F1F7B3
S1130CE000C084E608959A35C0F780E0089582E054
S1130CF08A95F1F700C09F5FEBCF2091B900287F60
S1130D0030E090E02817390711F08AE0089580E078
S1130D100895EF92FF921F93CF93DF9380E991E0C0
S1130D200E942006CCEBD0E084EA88830E9465060A
S1130D300F2EFBEBEF2EF12CF02D80EDF7018083CD
S1130D4014E818830E94650688E20E947D068EE0FE
S1130D50F701808318830E94650688E20E947D065D
S1130D6080E2F701808318830E94650688E20E946E
S1130D707D0688E0F701808318830E94650688E277
S1130D800E947D060E944A06DF91CF911F91FF9039
S1130D90EF9008959F92AF92BF92CF92DF92EF921D
S1130DA0FF920F931F93CF93DF935C01CCEBD0E0C2
S1130DB004EA08830E9465060F2EFBEBEF2EF12C4C
S1130DC0F02D80EDF701808314E818830E946506F6
S1130DD088E20E947D06F701108218830E9465064E
S1130DE088E20E947D060E944A0608830E946506E6
S1130DF081EDF701808318830E94650688E20E94D2
S1130E007D060E946506E5016501F3E1CF0ED11C64
S1130E100F2EFCEBEF2EF12CF02D0F2EF4EC9F2E69
S1130E20F02D0BEB10E0F70190820E946506F801AB
S1130E30908199930E94650680E50E947D06CC15F9
S1130E40DD0589F784E88093BC000E9465068091E3
S1130E50BB00F50186830E94650688E50E947D0635
S1130E60DF91CF911F910F91FF90EF90DF90CF9082
S1130E70BF90AF909F900895EF92FF920F931F93AE
S1130E80CF93DF939DEC899F912D11249695969590
S1130E909695C92FC295C07F990F292F220F220F33
S1130EA0920F891BC82B0CEB10E084EAF8018083B5
S1130EB00E9465060F2EFBEBEF2EF12CF02D80ED3A
S1130EC0F7018083D4E8F801D0830E94650688E2A4
S1130ED00E947D06F7011082F801D0830E94650606
S1130EE088E20E947D06F7011082F801D0830E94F7
S1130EF0650688E20E947D06F701C083F801D0836D
S1130F000E94650688E20E947D060E944A06DF91DF
S1130F10CF911F910F91FF90EF900895EF92FF9260
S1130F200F931F93CF93DF939DEC899F912D1124F1
S1130F30969596959695C92FC295C07F990F292F9E
S1130F40220F220F920F891BC82B0CEB10E084EAAE
S1130F50F80180830E9465060F2EFBEBEF2EF12C27
S1130F60F02D80EDF7018083D4E8F801D0830E944E
S1130F70650688E20E947D0682E0F7018083F8011D
S1130F80D0830E94650688E20E947D06F701C08333
S1130F90F801D0830E94650688E20E947D060E94C3
S1130FA04A06DF91CF911F910F91FF90EF90089522
S1130FB03A9A42988AB182628AB98BB18D7D8BB993
S1130FC084B18D6384B985B1827C85B9219A3B9AB9
S1130FD08AB1806C8AB9299A439A8BB1806C8BB997
S1130FE00895CF93DF93C82FD62F0E94D807D1112D
S1130FF02C9A8C2F90E08637910508F04DC0FC01A7
S1131000EC5CFF4F0C94140A85B1896285B98BB1ED
S113101082628BB9429A42C085B1896085B93EC06B
S113102085B1856285B9599A429A38C085B18D6275
S113103085B9599A33C085B18D6085B95D9A2EC042
S113104085B18C6285B98BB182628BB927C085B1B9
S11310508C6285B98BB182628BB9429A1FC085B10B
S1131060896085B98BB182628BB918C085B18D62F4
S113107085B98BB182628BB9429A10C085B18D62F9
S113108085B98BB182628BB909C085B1886285B993
S1131090429A04C02A9A02C00E94D807DF91CF91D5
S11310A00895823059F018F4813031F00895833076
S11310B039F0843039F00895439808955E9808957E
S11310C05F980895299808950E9478080C94590906
S11310D00E94520958F00E944B0940F029F45F3FE6
S11310E029F00C94420951110C948D090C9448096F
S11310F00E946A0968F39923B1F3552391F3951B70
S1131100550BBB27AA2762177307840738F09F5F24
S11311105F4F220F331F441FAA1FA9F335D00E2E91
S11311203AF0E0E832D091505040E695001CCAF7FE
S11311302BD0FE2F29D0660F771F881FBB1F2617C1
S113114037074807AB07B0E809F0BB0B802DBF0198
S1131150FF2793585F4F3AF09E3F510578F00C9467
S113116042090C948D095F3FE4F3983ED4F38695CD
S113117077956795B795F7959F5FC9F7880F911D88
S11311809695879597F90895E1E0660F771F881F74
S1131190BB1F621773078407BA0720F0621B730B27
S11311A0840BBA0BEE1F88F7E09508950E9472092C
S11311B088F09F5798F0B92F9927B751B0F0E1F014
S11311C0660F771F881F991F1AF0BA95C9F714C0C4
S11311D0B13091F00E948C09B1E008950C948C090F
S11311E0672F782F8827B85F39F0B93FCCF38695FD
S11311F077956795B395D9F73EF49095809570955A
S113120061957F4F8F4F9F4F0895E89409C097FBD6
S11312103EF490958095709561957F4F8F4F9F4FC9
S11312209923A9F0F92F96E9BB279395F69587950D
S113123077956795B795F111F8CFFAF4BB0F11F4D0
S113124060FF1BC06F5F7F4F8F4F9F4F16C0882377
S113125011F096E911C0772321F09EE8872F762FAD
S113126005C0662371F096E8862F70E060E02AF0EE
S11312709A95660F771F881FDAF7880F96958795DA
S113128097F9089597F99F6780E870E060E0089502
S11312909FEF80EC089500240A941616170618068A
S11312A00906089500240A94121613061406050666
S11312B00895092E0394000C11F4882352F0BB0FF7
S11312C040F4BF2B11F460FF04C06F5F7F4F8F4F5A
S11312D09F4F089557FD9058440F551F59F05F3F95
S11312E071F04795880F97FB991F61F09F3F79F044
S11312F087950895121613061406551FF2CF4695C6
S1131300F1DF08C0161617061806991FF1CF869547
S11313107105610508940895E894BB27662777272B
S1131320CB0197F908950E94A6090C9459090E94CB
S11313304B0938F00E94520920F0952311F00C94C7
S113134042090C94480911240C948D090E946A09DD
S113135070F3959FC1F3950F50E0551F629FF00104
S1131360729FBB27F00DB11D639FAA27F00DB11D1D
S1131370AA1F649F6627B00DA11D661F829F2227A6
S1131380B00DA11D621F739FB00DA11D621F839F2D
S1131390A00D611D221F749F3327A00D611D231F03
S11313A0849F600D211D822F762F6A2F11249F5751
S11313B050409AF0F1F088234AF0EE0FFF1FBB1F54
S11313C0661F771F881F91505040A9F79E3F510513
S11313D080F00C9442090C948D095F3FE4F3983E2D
S11313E0D4F3869577956795B795F795E7959F5FBD
S11313F0C1F7FE2B880F911D9695879597F908954F
S113140097FB072E16F4009407D077FD09D00E94AD
S11314101A0A07FC05D03EF4909581959F4F0895D4
S1131420709561957F4F0895EE0FFF1F0590F4911D
S1131430E02D0994AA1BBB1B51E107C0AA1FBB1FC7
S1131440A617B70710F0A61BB70B881F991F5A954C
S1131450A9F780959095BC01CD010895F894FFCF2C
S9030000FC
